:100000000C94BA020C94930C0C946C0C0C94120D7E
:100010000C94120D0C94120D0C94E2020C94E2025A
:100020000C94E2020C94E2020C94E2020C94E202C0
:100030000C94E2020C94E2020C94E2020C94E202B0
:100040000C94220C0C94E2020C94E00C0C94BA0C6C
:100050000C94E2020C94E2020C94E2020C94E20290
:100060000C94E2020C94E2024E414E494E4954591E
:10007000494E46CDCCCC3D0AD7233C17B7D1387773
:10008000CC2B329595E6241FB14F0A000020410089
:1000900000C84200401C4620BCBE4CCA1B0E5AAED3
:1000A000C59D742B4342433A200041542B434243A5
:1000B000002B4342433A200041542B43424300412A
:1000C000542B434E4143543F0041542B434E414334
:1000D000543D312C0041542B434E4143543D302C70
:1000E000310041542B485454505445524D00415412
:1000F0002B4854545052454144002B4854545041CD
:100100004354494F4E3A002B4854545041435449AC
:100110004F4E3A0041542B48545450414354494F98
:100120004E3D310041542B48545450414354494FA3
:100130004E3D310041542B48545450504152413DA2
:1001400022434F4E54454E54222C226170706C69EC
:10015000636174696F6E2F6A736F6E220041542B56
:1001600048545450414354494F4E3D300041542B64
:1001700048545450504152413D22434944222C316D
:100180000041542B48545450494E49540041542B7B
:10019000485454505445524D004461746120616C80
:1001A000726561647920656E61626C6564210045E9
:1001B0006E61626C656420646174612100466169EE
:1001C0006C656420746F20656E61626C6520636F7E
:1001D0006E6E656374696F6E2C20726574727969D6
:1001E0006E672E2E2E0041542B43504D533D22530B
:1001F0004D222C22534D222C22534D220053494D87
:100200003830304800093C2D2D2D2000092D2D2D92
:100210003E200053494D373630300053494D373575
:1002200030300053494D373037300053494D373067
:1002300030300053494D434F4D5F53494D353332B4
:1002400030450053494D434F4D5F53494D3533328F
:1002500030410053494D383030205231330053493A
:100260004D383038205231330053494D3830382022
:1002700052313400093C2D2D2D2000092D2D2D3E0D
:10028000200041542B435648553D300041544530E1
:100290000041544530004154004154004154005441
:1002A000696D656F75743A204E6F20726573706F5B
:1002B0006E736520746F2041542E2E2E206C617356
:1002C0007420646974636820617474656D70742E41
:1002D00000415400415400415400417474656D70F4
:1002E00074696E6720746F206F70656E20636F6D28
:1002F0006D2077697468204154730052657365748A
:1003000074696E6720746865206D6F64756C652E06
:100310002E2E0041542B47534E003F3F3F00534980
:100320004D373630300053494D3735303000534962
:100330004D373037300053494D3730303000534956
:100340004D353332304520284575726F7065616ECA
:10035000290053494D35333230412028416D6572B3
:100360006963616E290053494D3830382028763250
:10037000290053494D383038202876312900534917
:100380004D383030480053494D3830304C00466FBE
:10039000756E642000464F4E41206973204F4B001C
:1003A000436F756C646E27742066696E6420464FD7
:1003B0004E4100436F6E6669677572696E6720749F
:1003C0006F2039363030206261756400093C2D2D74
:1003D0002D2000092D2D2D3E200041542B43465544
:1003E0004E3D0041542B434744434F4E543D312C26
:1003F000224950222C002B435245473A20004154B9
:100400002B435245473F002B43475245473A200074
:1004100041542B43475245473F0052656769737407
:100420006572656420726F616D696E6700556E6BF1
:100430006E6F776E0044656E696564004E6F742060
:10044000726567697374657265642028736561728B
:100450006368696E672900526567697374657265C0
:10046000642028686F6D6529004E6F74207265677F
:1004700069737465726564003A20004E6574776F25
:10048000726B207374617475732000436F6E6E65B8
:100490006374656420746F2063656C6C206E657492
:1004A000776F726B21004661696C656420746F2000
:1004B000636F6E6E65637420746F2063656C6C206F
:1004C0006E6574776F726B2C207265747279696EC9
:1004D000672E2E2E006D646174612E6E65742E6120
:1004E000750000000000240027002A00000000081A
:1004F00000020100000304070000000000000000EB
:10050000093C2D2D2D2000092D2D2D3E2000093CCC
:100510002D2D2D2000092D2D2D3E2000093C2D2DA7
:100520002D2000092D2D2D3E20004F4B00464F4E13
:100530004100000000000023002600290000000008
:1005400000250028002B0004040404040404040211
:100550000202020202030303030303010204081060
:10056000204080010204081020010204081020002D
:100570008A0D461211241FBECFEFD8E0DEBFCDBFDB
:1005800026E0AAE1B4E001C01D92AA35B207E1F766
:1005900014E0A0E0B1E0E0E4F6E302C005900D92C3
:1005A000AA31B107D9F712E0C9EBD2E004C0219714
:1005B000FE010E94FA15C83BD107C9F70E94760ECA
:1005C0000C94131B0C9400009B01AC01109250067C
:1005D00010924F0610924E0610924D0610924C0645
:1005E00010924B0660E874E88EE190E00E94DB1503
:1005F000C90103979093520680935106909141064A
:10060000963108F05CC0B901769567956431710543
:1006100008F485C06351710970934C0660934B06D2
:10062000B9016550710970934E0660934D06B9018A
:10063000660F771F260F371F369527953695279516
:100640002C30310509F46EC02C503109309350061E
:1006500020934F062091680084E0983048F031E004
:100660009E3008F430E081E001C0880F3A95EAF747
:10067000822B809368002DE630E0983050F02BE616
:1006800030E09E3030F02CE630E0963110F030E073
:1006900020E03093490620934806292F30E0983017
:1006A00008F043C081E001C0880F9A95EAF7809373
:1006B0004A0680915106909152060197F1F7809178
:1006C0004F0690915006892B49F1E0917604F09104
:1006D000770486E0E533F80709F1309739F0A3890C
:1006E000B4899C918589809589238C938091530648
:1006F0008E7F80935306109275041092740485E3E4
:1007000096E09093770480937604E0914806F09108
:100710004906808190914A06892B8083089561E083
:1007200070E07ACF21E030E091CF9E3040F4285045
:10073000310981E001C0880F2A95EAF7B8CF2E5021
:100740003109F7CF90E0FC01E451FB4F2491FC010B
:10075000E55AFA4F3491FC01E95BFA4FE491EE233C
:10076000C9F0222339F0233001F1A8F4213019F126
:10077000223029F1F0E0EE0FFF1FE35CFA4FA59164
:10078000B4918FB7F894EC91611126C030953E2357
:100790003C938FBF08952730A9F02830C9F024304A
:1007A00049F7809180008F7D03C0809180008F7712
:1007B00080938000DFCF84B58F7784BDDBCF84B595
:1007C0008F7DFBCF8091B0008F778093B000D2CF28
:1007D0008091B0008F7DF9CF3E2BDACFCF93DF939E
:1007E00090E0FC01E55AFA4F2491895B9A4FFC0195
:1007F00084918823D1F090E0880F991FFC01EE517D
:10080000FB4FA591B491FC01E35CFA4FC591D491E3
:1008100061110EC09FB7F8948C91E22FE0958E2362
:100820008C932881E223E8839FBFDF91CF910895C5
:100830008FB7F894EC91E22BEC938FBFF6CF3FB7D4
:10084000F8948091700490917104A0917204B09119
:10085000730426B5A89B05C02F3F19F00196A11D72
:10086000B11D3FBFBA2FA92F982F8827BC01CD01FA
:10087000620F711D811D911D43E0660F771F881F58
:10088000991F4A95D1F708958F929F92AF92BF9288
:10089000CF92DF92EF92FF924B015C010E941F0406
:1008A0006B017C010E941F046C197D098E099F0950
:1008B000683E734081059105A8F321E0821A9108F2
:1008C000A108B10888EEC80E83E0D81EE11CF11C17
:1008D00081149104A104B10429F7FF90EF90DF90F7
:1008E000CF90BF90AF909F908F900895FF920F93FD
:1008F0001F93CF93DF938C01F62ED0E0C0E0015020
:100900001109CE3FD10580F58091330690913406D0
:10091000DC01ED91FC910084F185E02D0995892B96
:10092000C9F08091330690913406DC01ED91FC9181
:100930000284F385E02D09958D3031F38A3021F45E
:10094000209711F3FF2081F0FE01E55EFA4F8687C4
:100950002196DACF0115110539F061E070E080E0F1
:1009600090E00E944404CBCFFE01E55EFA4F16866C
:100970008C2FDF91CF911F910F91FF9008950895D3
:10098000DC01ED91FC910190F081E02D0994EF9252
:10099000FF920F931F93CF93DF938C017B01D0E0E5
:1009A000C0E0F701EC0FFD1F6491662361F0D801F0
:1009B000ED91FC910190F081E02DC8010995892B02
:1009C00011F02196EECFCE01DF91CF911F910F91C3
:1009D000FF90EF900895AF92BF92CF92DF92EF9287
:1009E000FF920F931F93CF93DF936C017B018B01D9
:1009F000040F151FEB015E01AE18BF08C017D10729
:100A000059F06991D601ED91FC910190F081E02DB2
:100A1000C6010995892B79F7C501DF91CF911F9107
:100A20000F91FF90EF90DF90CF90BF90AF9008951F
:100A3000FC01538D448D252F30E0842F90E0821BE4
:100A4000930B541710F0CF96089501970895FC0169
:100A5000918D828D981761F0A28DAE0FBF2FB11DC1
:100A60005D968C91928D9F5F9F73928F90E0089519
:100A70008FEF9FEF0895FC01918D828D981731F0D3
:100A8000828DE80FF11D858D90E008958FEF9FEF27
:100A90000895FC01918D228D892F90E0805C9F4FFD
:100AA000821B91098F739927089588E794E00E942B
:100AB000490521E0892B09F420E0822F089580E088
:100AC00090E0892B29F00E94550581110C940000BB
:100AD0000895FC01A48DA80FB92FB11DA35ABF4FD3
:100AE0002C91848D90E001968F739927848FA6892D
:100AF000B7892C93A089B1898C91837080648C9381
:100B0000938D848D981306C00288F389E02D80812F
:100B10008F7D80830895EF92FF920F931F93CF9361
:100B2000DF93EC0181E0888F9B8D8C8D98131AC028
:100B3000E889F989808185FF15C09FB7F894EE890F
:100B4000FF896083E889F98980818370806480836C
:100B50009FBF81E090E0DF91CF911F910F91FF90B7
:100B6000EF900895F62E0B8D10E00F5F1F4F0F735F
:100B70001127E02E8C8D8E110CC00FB607FCFACF1A
:100B8000E889F989808185FFF5CFCE010E9469054A
:100B9000F1CFEB8DEC0FFD2FF11DE35AFF4FF082EB
:100BA0009FB7F8940B8FEA89FB8980818062CFCF51
:100BB000CF93DF93EC01888D8823B9F0AA89BB8994
:100BC000E889F9898C9185FD03C0808186FD0DC07F
:100BD0000FB607FCF7CF8C9185FFF2CF808185FFA0
:100BE000EDCFCE010E946905E9CFDF91CF91089545
:100BF00020917604309177042817390771F4909189
:100C0000740480917504981741F0E0917404F0E049
:100C1000E65EFB4F808190E008958FEF9FEF08958F
:100C20000895EF92FF920F931F93CF93DF93DC0110
:100C30005C96ED90FC905D97E114F10479F481E00D
:100C400090E013969C938E93129790E080E0DF9152
:100C5000CF911F910F91FF90EF9008955196ED91D4
:100C6000FC91529750968C915097982F90950FB772
:100C70005E962C915E97122F127021FD6095F8946C
:100C80002081112319F1282B2083E7012197F1F707
:100C900028E0462F50E0308160FF1AC0382B3083A7
:100CA000E7012197F1F7BA0175956795215089F70A
:100CB000112381F08081892380830FBF5C968D9101
:100CC0009C910197F1F781E090E0C1CF2923DCCF1F
:100CD0003923E5CF9081892BEFCF20917604309195
:100CE00077042817390771F48091750420917404F2
:100CF00090E0805C9F4F821B910960E470E00E944D
:100D0000A515089590E080E0089520917604309133
:100D1000770428173907B9F4909174048091750409
:100D2000981789F0E0917404F0E0E65EFB4F808153
:100D30002091740430E02F5F3F4F2F7333272093AF
:100D4000740490E008958FEF9FEF0895885E9E4FA2
:100D5000DC018D919C91DC01ED91FC910680F78185
:100D6000E02D0994885E9E4FDC018D919C91DC0101
:100D7000ED91FC910484F585E02D0994885E9E4FE9
:100D8000DC018D919C91DC01ED91FC910284F38555
:100D9000E02D0994885E9E4FDC018D919C91DC01D1
:100DA000ED91FC910190F081E02D0994885E9E4FB9
:100DB000DC018D919C91DC01ED91FC910084F18529
:100DC000E02D0994CF93DF9390E080E0EC01219631
:100DD0008897A8F48BE195E00E94D606892B39F01C
:100DE0008BE195E00E94BE06D0E0C0E0F3CF61E069
:100DF00070E080E090E00E944404CE01E7CFDF91F4
:100E0000CF91089590E080E00895FB0101900020CB
:100E1000E9F73197AF01461B570BDC01ED91FC91CF
:100E20000280F381E02D09948F929F92AF92BF923E
:100E3000EF92FF920F931F93CF93DF93CDB7DEB75F
:100E4000A1970FB6F894DEBF0FBECDBF7C01FA01AB
:100E5000CB0119A2223008F42AE08E010F5D1F4F4A
:100E6000822E912CB12CA12CBF01A50194010E94CE
:100E7000B915F901CA016A300CF5605DD8016E93AD
:100E80008D01232B242B252B79F790E080E0109700
:100E900021F0BD01C7010E940507A1960FB6F89485
:100EA000DEBF0FBECDBFDF91CF911F910F91FF909D
:100EB000EF90BF90AF909F908F900895695CDECFC8
:100EC00060E471E00C9405070F931F93CF93DF93B9
:100ED000EC012AE00E9414078C01CE010E946007F9
:100EE000800F911FDF91CF911F910F9108950F9364
:100EF0001F93CF93DF938C01D0E0C0E061157105A3
:100F000019F00E940507EC01C8010E9460078C0FD0
:100F10009D1FDF91CF911F910F910895CF93DF9384
:100F2000EC010E94E20665E175E088E794E00E942A
:100F3000C704BE0188E794E00E947707BE01809154
:100F40003306909134060E94770760E080E197E2D3
:100F50000E947604C82F6EE075E088E794E00E9456
:100F6000C70469E275E088E794E00E9477078C2F58
:100F7000DF91CF910895CF93DF93EB010E948E070D
:100F8000882341F0BE0189E295E00E94881221E0A9
:100F9000892B09F020E0822FDF91CF910895CF9225
:100FA000DF92EF92FF920F931F93CF93DF937C0119
:100FB0008B016A010E94E20667E075E088E794E031
:100FC0000E94C704B70188E794E00E94C70462E268
:100FD00088E794E00E94C004B80188E794E00E948A
:100FE000C70462E288E794E00E94C00488E794E0C6
:100FF0000E946007C3E3D6E0B701888199810E940F
:10100000C70462E2888199810E94C004B801888186
:1010100099810E94C7040990D881C02D62E2CE0157
:101020000E94C004CE010E94600760E0C6010E94D9
:101030007604C82F60E075E088E794E00E94C7045A
:1010400069E275E088E794E00E9477078C2FDF91D2
:10105000CF911F910F91FF90EF90DF90CF90089567
:101060000F931F93CF93DF93EC010E94C7048C0171
:10107000CE010E946007800F911FDF91CF911F91D9
:101080000F9108950F931F93CF93DF93EC018B0182
:101090000E94E20663E275E088E794E00E94C704DC
:1010A000BE0188E794E00E943008BE0180913306BB
:1010B000909134060E94300860E0C8010E947604D6
:1010C000C82F6CE175E088E794E00E94C70469E2EC
:1010D00075E088E794E00E9477078C2FDF91CF912D
:1010E0001F910F910895CF93DF93EB01BA010E94F6
:1010F0004208882341F0BE0189E295E00E948812EF
:1011000021E0892B09F020E0822FDF91CF91089513
:10111000DF92EF92FF920F931F93CF93DF937C01A7
:101120008B01D42EBC0189E295E00E949A12EC0159
:10113000892B21F1C7010E9491126CE270E08C0FA3
:101140009D1F0E942E180097C9F0019621E0D2162B
:1011500039F06CE270E00E942E18009779F0019649
:101160000E946A12F8019183808381E0DF91CF9120
:101170001F910F91FF90EF90DF90089580E0F6CFE0
:10118000FF920F931F93CF93DF93EB018A01F22E0F
:1011900064EF71E00E9442084F2DB801CE010E9419
:1011A0008808C82F882329F060E084EF91E00E942E
:1011B00076048C2FDF91CF911F910F91FF900895AE
:1011C000FC0180819181009711F00C94DF16089545
:1011D000EF92FF920F931F93CF93DF93EC017B016C
:1011E000198218821B821A821D821C82FB010190C7
:1011F0000020E9F731978F01061B170BB8016F5FCD
:101200007F4F90E080E00E9468170097B9F09983C3
:1012100088831B830A832C813D81232B11F4FC01DD
:1012200010821D830C83B70188819981DF91CF9152
:101230001F910F91FF90EF900C9442188881998133
:10124000009711F00E94DF16198218821D821C82FD
:101250001B821A82DF91CF911F910F91FF90EF9027
:1012600008954F925F926F927F928F929F92AF926A
:10127000BF92CF92DF92EF92FF920F931F93CF9383
:10128000DF93CDB7DEB7CC59D2400FB6F894DEBFAE
:101290000FBECDBFADB6BEB6809128059BEF980FAF
:1012A000923028F08D3019F0803109F0ECC164EFF4
:1012B00071E088EB90E00E94420861EB70E089E207
:1012C00095E00E949A12009751F006960E946612CD
:1012D0006B017C0160E084EF91E00E94760420E0E5
:1012E00030E04AE754E4C701B6010E9493140E941B
:1012F0001416C556DD4F79836883CB59D2408E01D1
:101300000F5B1D4F62E471E0C8010E94E808C556FA
:10131000DD4FD880CB59D240C456DD4FC880CC5960
:10132000D2407E012FEFE21A2DEFF20A6AE574E057
:10133000C7010E94E8081F928EE08F931F928DE0F4
:101340008F931F928CE08F931F928BE08F931F924D
:101350008AE08F931F9289E08F931F9288E08F938A
:101360001F9287E08F931F9286E08F931F9285E0F4
:101370008F931F9284E08F931F9283E08F931F922D
:1013800082E08F931F9281E08F931F930F93CF92F0
:10139000DF92FF92EF9283E491E09F938F9387E433
:1013A00091E09F938F93CE0101966C019F938F9351
:1013B0000E947218EDB7FEB7B8960FB6F894FEBF4C
:1013C0000FBEEDBFC7010E94E008C8010E94E008FF
:1013D00064EF71E08FEB90E00E9442088091280555
:1013E0006BEE72E08C3011F067EF72E089E295E00D
:1013F0000E94581869E971E0892BA1F580903106A7
:1014000090903206809128058C3009F047C144EF56
:1014100051E0B40185ED90E00E947308882309F43F
:101420004FC160E084EF91E00E94760461E073E0D8
:1014300088E794E00E94050769E275E088E794E098
:101440000E947707809128058C3009F046C168E03A
:1014500073E089E295E00E945818892B09F430C1A5
:101460006FEA71E088E794E00E9430086CE173E075
:10147000C8010E9442186DE373E0C7010E94421840
:10148000F60101900020E9F73197EC19FD09AF0151
:1014900070E060E02AE088E794E00E94140788E7A3
:1014A00094E00E946007B60188E794E00E94050777
:1014B00088E794E00E9460076091310670913206DF
:1014C00040E157E28DE891E00E9473086091310697
:1014D0007091320640E157E281E891E00E94730882
:1014E000882309F444C1609131067091320640E1CD
:1014F00057E28DE691E00E947308882309F437C112
:10150000F70101900020E9F7CF018E199F09459658
:101510002DB73EB7281B390B0FB6F8943EBF0FBE50
:101520002DBF8DB79EB701964C01FF92EF9286E6D4
:1015300093E09F938F939F928F920E947218609175
:10154000310670913206C4010E94BB070F900F90C4
:101550000F900F900F900F90882309F408C16091AD
:101560003106709132068981882309F460C1F60141
:1015700001900020E9F73197EC19FD092F018DE763
:1015800093E08258934009F0AEC040E157E28DE508
:1015900091E00E947308882309F4E9C060E080E1CB
:1015A00097E20E94760441E0BE0167567D4F87E0D6
:1015B00091E00E948808882309F4D9C042E0BE0166
:1015C0006F577D4F8AEF90E00E948808882309F4C6
:1015D000CEC066ED73E088E794E00E940507C75629
:1015E000DD4F48815981C959D24070E060E02AE05E
:1015F00088E794E00E94140788E794E00E9460075F
:1016000064EE73E088E794E00E940507CF57DD4F52
:1016100048815981C158D24070E060E02AE088E7F3
:1016200094E00E94140788E794E00E946007C75680
:10163000DD4F88819981C959D240883C910509F0D4
:1016400096C064EF71E08EEE90E00E94420860E088
:1016500080E197E20E94760461E073E088E794E01D
:101660000E94050769E275E088E794E00E94770729
:10167000609131067091320640E157E282EE90E0CF
:101680000E94730874C022E0AE0145565D4F63EAC4
:1016900070E08AEA90E00E94C00831CE609128068E
:1016A0007091290644EF51E089EC90E00E94CF0749
:1016B000B40189E295E00E948812892B09F4B1CE29
:1016C0006DEB71E088E794E00E94300860ED77E010
:1016D00080E090E00E94440491CE873009F0C0CEB3
:1016E00060E173E0B6CEEF2B09F4A7C040E157E20A
:1016F00084E391E00E9473088823C9F1F801808196
:10170000882309F456C08DB69EB601900020E9F7F3
:10171000CF01801B910BC6962DB73EB7281B390B06
:101720000FB6F8943EBF0FBE2DBF8DB79EB7019682
:101730007C011F930F9386E893E09F938F93FF9212
:10174000EF920E9472186091310670913206C701C3
:101750000E94BB070F900F900F900F900F900F906B
:10176000811122C00FB6F8949EBE0FBE8DBE0FB67B
:10177000F894BEBE0FBEADBEC456DD4F0FB6F89492
:10178000DEBF0FBECDBFDF91CF911F910F91FF90B4
:10179000EF90DF90CF90BF90AF909F908F907F9011
:1017A0006F905F904F9008950FB6F8949EBE0FBE55
:1017B0008DBE1F921F925F924F9288EB93E09F9392
:1017C0008F938E010F571D4F1F930F930E94721816
:1017D000C8010E948E07EDB7FEB738960FB6F89491
:1017E000FEBF0FBEEDBF882311F26DEC73E089E2FE
:1017F00095E00E943918892B09F0B9CF64E670E0B2
:1018000080E090E00E9444046091310670913206BD
:10181000C6010E94BB07882309F4A9CF6091310655
:101820007091320640E157E284E291E0B2CE8DE75A
:1018300093E08258934009F4A8CE40E157E284E156
:1018400091E0A7CE1F920F920FB60F9211242F9303
:101850003F938F939F93AF93BF9380916C0490912C
:101860006D04A0916E04B0916F0430916B0426E07A
:10187000230F2D3758F50296A11DB11D20936B043F
:1018800080936C0490936D04A0936E04B0936F04E6
:101890008091700490917104A0917204B0917304CE
:1018A0000196A11DB11D8093700490937104A093C3
:1018B0007204B0937304BF91AF919F918F913F9148
:1018C0002F910F900FBE0F901F90189529E8230FAE
:1018D0000396A11DB11DD2CF1F920F920FB60F928A
:1018E00011242F933F934F935F936F937F938F9325
:1018F0009F93AF93BF93EF93FF93E0910201F09119
:1019000003010995FF91EF91BF91AF919F918F9145
:101910007F916F915F914F913F912F910F900FBEEB
:101920000F901F9018951F920F920FB60F921124CF
:101930002F933F934F935F936F937F938F939F93D7
:10194000AF93BF93EF93FF93E0910001F0910101FA
:101950000995FF91EF91BF91AF919F918F917F91E9
:101960006F915F914F913F912F910F900FBE0F900C
:101970001F9018951F920F920FB60F9211242F935C
:101980003F934F935F936F937F938F939F93AF9307
:10199000BF93EF93FF9388E794E00E946905FF915E
:1019A000EF91BF91AF919F918F917F916F915F91D7
:1019B0004F913F912F910F900FBE0F901F90189550
:1019C0001F920F920FB60F9211242F938F939F9314
:1019D000EF93FF93E0918804F09189048081E09176
:1019E0008E04F0918F0482FD1BC090818091910440
:1019F0008F5F8F7320919204821741F0E0919104E0
:101A0000F0E0E858FB4F958F80939104FF91EF91A0
:101A10009F918F912F910F900FBE0F901F9018954F
:101A20008081F4CF1F920F920FB60F9211242F9343
:101A30003F934F935F936F937F938F939F93AF9356
:101A4000BF93EF93FF93E0917604F0917704309782
:101A500049F0A685B7858585968D91FF14C09C9128
:101A60008923A1F4FF91EF91BF91AF919F918F9145
:101A70007F916F915F914F913F912F910F900FBE8A
:101A80000F901F9018959C91892361F7A389B489C1
:101A90009C918589809589238C9386899789019764
:101AA000F1F7608D718DA685B785558538E020E00A
:101AB000CB010197F1F7822F90E095958795282F1C
:101AC0004C91452309F02068315091F7868D81FDB6
:101AD00020958091750490E001968F73992730913D
:101AE0007404381799F0A0917504B0E0A65EBB4F5E
:101AF0002C9380937504828D938D0197F1F7A389C0
:101B0000B4898C919589892B8C93ACCF868D81601B
:101B1000868FF1CF10927B0410927A0488EE93E0C6
:101B2000A0E0B0E080937C0490937D04A0937E04B9
:101B3000B0937F042EE031E0309379042093780451
:101B400025EC30E0309385042093840424EC30E0CD
:101B5000309387042093860420EC30E0309389048E
:101B60002093880421EC30E030938B0420938A0486
:101B700022EC30E030938D0420938C0426EC30E08E
:101B800030938F0420938E0410929104109292044B
:101B90001092930410929404109238061092370613
:101BA0008093390690933A06A0933B06B0933C0687
:101BB00082E391E0909336068093350610924C06AE
:101BC00010924B0610924E0610924D06109250063F
:101BD00010924F06109252061092510660915306D1
:101BE0006E7F6D7F609353066695617081E0682714
:101BF00088E00E94A20361E088E00E94EE03E3E631
:101C0000F5E0E491E0934506EFE4F5E0E491F0E0DF
:101C1000EE0FFF1FE35CFA4F859194919093470676
:101C20008093460660E089E00E94EE0380915306AF
:101C300081FD04C061E089E00E94A20389E08093F5
:101C40004106E4E6F5E0E491E0934206E0E5F5E0E4
:101C5000E491F0E0EE0FFF1FED5CFA4F8591949157
:101C6000909344068093430610921E0510921D0522
:101C700088EE93E0A0E0B0E080931F0590932005EC
:101C8000A0932105B093220583E68093270582E384
:101C900095E0909329068093280610922B061092C7
:101CA0002A0610922D0610922C06109234061092DD
:101CB000330610922E068DE295E0909330068093C5
:101CC0002F068AE295E0909332068093310680E2F7
:101CD00091E090931C0580931B058DE0809328056F
:101CE00062E471E085E195E00C94E808CF93DF931E
:101CF00000D0CDB7DEB7789484B5826084BD84B55A
:101D0000816084BD85B5826085BD85B5816085BDF6
:101D100080916E00816080936E00109281008091AE
:101D20008100826080938100809181008160809336
:101D30008100809180008160809380008091B1005B
:101D400084608093B1008091B00081608093B00086
:101D500080917A00846080937A0080917A0082601A
:101D600080937A0080917A008E7F80937A008091B0
:101D70007A00806880937A001092C100E091880414
:101D8000F091890482E08083E0918404F0918504DD
:101D90001082E0918604F091870487E68083109298
:101DA0009004E0918C04F0918D0486E08083E091B2
:101DB0008A04F0918B04808180618083E0918A04A1
:101DC000F0918B04808188608083E0918A04F09197
:101DD0008B04808180688083E0918A04F0918B0479
:101DE00080818F7D808361E084E00E94EE0360E06B
:101DF00084E00E94A20380912805853008F079C014
:101E00006AE174E080E090E00E94440461E084E0D4
:101E10000E94A20360E072EC81E090E00E94E40284
:101E200063EB73E088E794E00E94300862EF73E0B0
:101E300085E396E00E94770764E670E080E090E03A
:101E40000E94440460E875E280E090E00E94E402B1
:101E500085E396E0909334068093330680912705BE
:101E6000833631F16BEF72E088E794E00E9430082E
:101E700061E0809127050E94EE0361E080912705D3
:101E80000E94A2036AE070E080E090E00E944404B7
:101E900060E0809127050E94A20364E670E080E084
:101EA00090E00E94440461E0809127050E94A20313
:101EB0006AED72E088E794E00E9430080EE010E0DE
:101EC0008091330690913406DC01ED91FC91008401
:101ED000F185E02D0995892B41F180913306909190
:101EE0003406DC01ED91FC910284F385E02D099527
:101EF000E7CF9BEF980F923028F464EB70E080E01E
:101F000090E082CF873011F08C3029F46CE474E0DB
:101F100080E090E079CF8D3019F0803109F076CFF4
:101F200064EF71E080E090E06FCF609131067091D6
:101F3000320644EF51E087ED92E00E947308811170
:101F400063C08091330690913406DC01ED91FC91E1
:101F50000084F185E02D0995892B61F0809133068D
:101F600090913406DC01ED91FC910284F385E02D23
:101F70000995E7CF44EF51E061ED72E084ED92E026
:101F80000E947308811140C064EF71E080E090E02E
:101F90000E9444040150110909F092CF6FE972E0E8
:101FA00088E794E00E943008609131067091320613
:101FB00044EF51E08CE992E00E94730864E670E01F
:101FC00080E090E00E9444046091310670913206F6
:101FD00044EF51E089E992E00E94730864E670E002
:101FE00080E090E00E9444046091310670913206D6
:101FF00044EF51E086E992E00E94730864E670E0E5
:1020000080E090E00E9444046091310670913206B5
:1020100044EF51E081E992E00E94730864E670E0C9
:1020200080E090E00E944404609131067091320695
:1020300044EF51E08CE892E00E947308811107C0E0
:1020400060EA73E088E794E00E943008FFCF809157
:102050002705833651F0609131067091320644EFC6
:1020600051E082E892E00E94730864E670E080E04C
:1020700090E00E9444040E94E2066BE772E088E769
:1020800094E00E94C7046EEF73E088E794E00E943A
:1020900077076EEF73E080913306909134060E94CB
:1020A000770761E084EF91E00E94760464E772E0D4
:1020B00088E794E00E94C70469E275E088E794E04D
:1020C0000E94770769E672E089E295E00E949A1221
:1020D000892B09F46CC084E0809328058091280541
:1020E000813081F56CE072E088E794E00E94C704DB
:1020F00065E074E088E794E00E94770765E074E0AB
:1021000080913306909134060E94770761E084EF56
:1021100091E00E94760465E072E088E794E00E9416
:10212000C70469E275E088E794E00E9477076DEFE5
:1021300071E089E295E00E949A12892B19F082E001
:1021400080932805609131067091320644EF51E08A
:1021500086EE91E00E9473088091280580936A04BE
:1021600065E973E088E794E00E9430086EE873E068
:1021700088E794E00E94C704E0916A04E150E031EE
:1021800008F056C1F0E0E953FF4E0C94FA152811FF
:10219000FD1100120312061209120C121812181265
:1021A000181218120F1212121812181215126EE5C8
:1021B00072E089E295E00E949A12892B11F083E087
:1021C0008BCF63E572E089E295E00E949A12892B39
:1021D00011F081E081CF63E472E089E295E00E9432
:1021E0009A12892B11F085E077CF63E372E089E2E0
:1021F00095E00E949A12892B11F086E06DCF6BE278
:1022000072E089E295E00E949A12892B11F087E032
:1022100063CF63E272E089E295E00E949A12892B13
:1022200011F08CE059CF6BE172E089E295E00E94F9
:102230009A12892B11F08DE04FCF63E172E089E2B1
:1022400095E00E949A12892B09F448CF80E144CF8F
:1022500066E873E088E794E00E94300864EF71E07C
:1022600083E193E00E9442084FE050E069E275E0AC
:102270008AE594E00E9449181092690460E084EFB6
:1022800091E00E9476048AE594E0FC010190002030
:10229000E9F7CF018B559440882361F06CE074E03E
:1022A00088E794E00E9405076AE574E088E794E017
:1022B0000E9477070E94E20663ED73E088E794E0EE
:1022C0000E94C7046AED73E088E794E00E94C704A7
:1022D00041E050E060E070E088E794E00E9464072D
:1022E0006AED73E080913306909134060E94C70432
:1022F00041E050E060E070E0809133069091340658
:102300000E94640760E084EF91E00E9476046CEC28
:1023100073E088E794E00E94C70469E275E088E70B
:1023200094E00E94770785ED94E0909329068093CE
:10233000280610922B0610922A0610922D06109253
:102340002C0680912805873040F040E157E265ED8A
:1023500074E083EE93E00E94CF078091280521E08E
:10236000AE014F5F5F4F873008F465C067E074E0EF
:1023700080E194E00E94C0081981811101C010E041
:102380006BE774E088E794E00E94C704412F50E0B7
:1023900070E060E02AE088E794E00E94140768E7B4
:1023A00074E088E794E00E94C70469E674E01123B2
:1023B00009F452C0113009F043C067E574E088E7C2
:1023C00094E00E9430086BE874E088E794E00E9493
:1023D000300800E010E00E94310968E873E180E015
:1023E00090E00E94440401151105A9F30E945505CF
:1023F000882389F30E940000EECF6EE773E02ACFB6
:1024000062E773E027CF66E673E024CF62E573E00E
:1024100021CF6EE373E01ECF66E373E01BCF6EE265
:1024200073E018CF66E273E015CF6EE173E012CF70
:102430006AE173E00FCF66EF73E08EEF93E09ACF1F
:102440006CE374E0123041F065E374E0133021F086
:10245000143099F46DE274E088E794E00E9430084B
:1024600066EA74E088E794E00E94300868E873E167
:1024700080E090E00E94440470CF153019F46AE1C6
:1024800074E09DCF113009F49ECFEACF85E195E04D
:102490000E94E00882E391E090933606809335062F
:1024A00080917604909177048553964071F4E09181
:1024B0004806F0914906908180914A0680958923CB
:1024C0008083109277041092760408956627772708
:1024D0000C94BC12FC0188279927E89421912032A2
:1024E000E9F3293010F02E30C8F32B3241F02D32B1
:1024F00039F4689404C00E94B412820F911D219196
:1025000020532A30C0F31EF4909581959F4F089573
:10251000FB01DC018D91059080190110D9F3990B15
:102520000895FC0105900020E9F7809590958E0FA5
:102530009F1F0895FB0155915523A9F0BF01DC01B0
:102540004D9145174111E1F759F4CD010590002057
:1025500049F04D9140154111C9F3FB014111EFCFF5
:1025600081E090E0019708957AE0979F902D879FF2
:10257000802D910D11240895B0E0A0E0E2ECF2E18D
:102580000C9465155C017B016115710519F0DB0187
:102590008D939C9385010F5F1F4FF501D0818D2F87
:1025A00090E00E940C146C01892BB9F5DD32B9F56D
:1025B0000F5F1F4FD5011196DC91C1E05801F1E08A
:1025C000AF1AB10843E050E060E770E0C5010E9437
:1025D0001514892B69F5680182E0C80ED11C45E00D
:1025E00050E06BE670E0C6010E941514892B21F4BF
:1025F000680197E0C90ED11CE114F10419F0D7016C
:10260000CD92DC9260E070E080E89FEFC111FFC0E6
:1026100060E070E080E89FE7FAC05801BBCFDB3292
:1026200029F485010E5F1F4FF501D181C0E0C6CFAF
:1026300043E050E068E670E0C5010E941514892B64
:10264000E9F0F80110E000E020E030E0A9015F01CE
:10265000B0ED8B2E8D0E89E08815C8F19C2E689404
:1026600091F88C2F8870C2FF16C0811102C00F5FD5
:102670001F4F3196D501DC91C92DE9CFE114F1044A
:1026800029F00E5F1F4FF7011183008360E070E0B7
:1026900080EC9FE7BCC0882311F001501109A5E030
:1026A000B0E00E9454159B01AC01220F331F441F60
:1026B000551F280D311D411D511D283999E9390734
:1026C000490799E15907A8F2C6609C2ED2CFAEEF18
:1026D0008A1206C0C3FD3CC09C2E689493F8C9CFF3
:1026E000DF7DD534A9F580818D3239F4C061DF01F9
:1026F0001296818162E070E006C0DF018B32C1F387
:10270000119661E070E080535D01A61AB70A8A3025
:10271000F8F4E0E8CE16ECE0DE065CF4B601660FF5
:10272000771F660F771FC60ED71ECC0CDD1CC80E98
:10273000D11C5D01FFEFAF1ABF0A8C9180538A3024
:10274000A8F1C4FF03C0D194C194D1080C0D1D1D84
:10275000C1FF09C0E114F10431F081E0A81AB10809
:10276000D701AD92BC92CA01B9010E943214C37064
:10277000C33009F490584B015C0120E030E0A9011E
:102780000E942D14882309F440C0CFE9D0E017FF40
:1027900005C0119501951109C7E8D0E06E01B8E1B7
:1027A000CB1AD10880E2E82EF12C0FC0D501B1CFB1
:1027B000FE0125913591459154910E191F09C501CE
:1027C000B4010E9493144B015C01D501C4010E15A4
:1027D0001F0574F72497F594E794CC16DD06A9F746
:1027E0008A2F880F8B2F881F8F3F49F020E030E021
:1027F000A901C501B4010E942D14811106C082E215
:1028000090E09093550680935406C501B401CDB76E
:10281000DEB7ECE00C94811591110C940015803218
:1028200019F089508550C8F70895FB01DC0141502B
:10283000504088F08D9181341CF08B350CF4805E13
:10284000659161341CF06B350CF4605E861B611180
:1028500071F3990B0895881BFCCF0E946F1408F444
:1028600081E00895E89409C097FB3EF49095809527
:10287000709561957F4F8F4F9F4F9923A9F0F92F46
:1028800096E9BB279395F695879577956795B795C4
:10289000F111F8CFFAF4BB0F11F460FF1BC06F5FAA
:1028A0007F4F8F4F9F4F16C0882311F096E911C0BC
:1028B000772321F09EE8872F762F05C0662371F0DD
:1028C00096E8862F70E060E02AF09A95660F771FF1
:1028D000881FDAF7880F9695879597F90895990FCD
:1028E0000008550FAA0BE0E8FEEF16161706E807DA
:1028F000F907C0F012161306E407F50798F0621BFB
:10290000730B840B950B39F40A2661F0232B242BCF
:10291000252B21F408950A2609F4A140A6958FEFEE
:10292000811D811D08950E94A6140C941A150E9401
:102930000C1538F00E94131520F0952311F00C941B
:1029400003150C94091511240C944E150E942B1597
:1029500070F3959FC1F3950F50E0551F629FF001F2
:10296000729FBB27F00DB11D639FAA27F00DB11D0B
:10297000AA1F649F6627B00DA11D661F829F222794
:10298000B00DA11D621F739FB00DA11D621F839F1B
:10299000A00D611D221F749F3327A00D611D231FF1
:1029A000849F600D211D822F762F6A2F11249F573F
:1029B00050409AF0F1F088234AF0EE0FFF1FBB1F42
:1029C000661F771F881F91505040A9F79E3F510501
:1029D00080F00C9403150C944E155F3FE4F3983E81
:1029E000D4F3869577956795B795F795E7959F5FAB
:1029F000C1F7FE2B880F911D9695879597F908953D
:102A000099278827089597F99F6780E870E060E02C
:102A100008959FEF80EC089500240A941616170677
:102A200018060906089500240A94121613061406BF
:102A300005060895092E0394000C11F4882352F022
:102A4000BB0F40F4BF2B11F460FF04C06F5F7F4FDA
:102A50008F4F9F4F089557FD9058440F551F59F0C1
:102A60005F3F71F04795880F97FB991F61F09F3F7B
:102A700079F087950895121613061406551FF2CFA4
:102A80004695F1DF08C0161617061806991FF1CFF4
:102A900086957105610508940895E894BB2766271B
:102AA0007727CB0197F908950E949615A59F900D61
:102AB000B49F900DA49F800D911D112408952F9215
:102AC0003F924F925F926F927F928F929F92AF92BE
:102AD000BF92CF92DF92EF92FF920F931F93CF930B
:102AE000DF93CDB7DEB7CA1BDB0B0FB6F894DEBFA2
:102AF0000FBECDBF09942A88398848885F846E84C8
:102B00007D848C849B84AA84B984C884DF80EE8011
:102B1000FD800C811B81AA81B981CE0FD11D0FB61A
:102B2000F894DEBF0FBECDBFED010895A29FB001A6
:102B3000B39FC001A39F700D811D1124911DB29FF1
:102B4000700D811D1124911D089597FB072E16F419
:102B5000009407D077FD09D00E94001607FC05D02D
:102B60003EF4909581959F4F0895709561957F4FA4
:102B70000895A1E21A2EAA1BBB1BFD010DC0AA1FBE
:102B8000BB1FEE1FFF1FA217B307E407F50720F0D6
:102B9000A21BB30BE40BF50B661F771F881F991F51
:102BA0001A9469F760957095809590959B01AC019A
:102BB000BD01CF010895052E97FB1EF400940E94DD
:102BC000F21557FD07D00E94B91507FC03D04EF44B
:102BD0000C94F21550954095309521953F4F4F4FED
:102BE0005F4F089590958095709561957F4F8F4FB9
:102BF0009F4F0895EE0FFF1F0590F491E02D09946B
:102C0000AA1BBB1B51E107C0AA1FBB1FA617B70712
:102C100010F0A61BB70B881F991F5A95A9F780952E
:102C20009095BC01CD0108950E94331588F09F57FF
:102C300098F0B92F9927B751B0F0E1F0660F771FE0
:102C4000881F991F1AF0BA95C9F714C0B13091F0D6
:102C50000E944D15B1E008950C944D15672F782F03
:102C60008827B85F39F0B93FCCF38695779567959B
:102C7000B395D9F73EF490958095709561957F4F07
:102C80008F4F9F4F08950F931F93CF93DF93823001
:102C9000910510F482E090E0E0915806F091590619
:102CA00030E020E0B0E0A0E0309799F42115310544
:102CB00009F44AC0281B390B24303105D8F58A8124
:102CC0009B816115710589F1FB0193838283FE016C
:102CD00011C0408151810281138148175907E0F0EA
:102CE0004817590799F4109761F012960C931297B0
:102CF00013961C933296CF01DF91CF911F910F91C4
:102D000008950093580610935906F4CF2115310504
:102D100051F04217530738F0A901DB019A01BD01B8
:102D2000DF01F801C1CFEF01F9CF909359068093ED
:102D30005806CDCFFE01E20FF31F819391932250ED
:102D4000310939832883D7CF209156063091570611
:102D5000232B41F42091060130910701309357064F
:102D6000209356062091040130910501211531056B
:102D700041F42DB73EB74091080150910901241B41
:102D8000350BE0915606F0915706E217F307A0F4D1
:102D90002E1B3F0B2817390778F0AC014E5F5F4FB1
:102DA0002417350748F04E0F5F1F50935706409386
:102DB0005606819391939FCFF0E0E0E09CCFCF93B4
:102DC000DF930097E9F0FC01329713821282A09101
:102DD0005806B0915906ED0130E020E01097A1F4BB
:102DE00020813181820F931F209156063091570622
:102DF0002817390709F061C0F0935706E09356068B
:102E0000DF91CF910895EA01CE17DF07E8F54A81F7
:102E10005B819E0141155105B1F7E901FB83EA830E
:102E200049915991C40FD51FEC17FD0761F48081BA
:102E300091810296840F951FE9019983888382818D
:102E400093819B838A83F0E0E0E012968D919C91C0
:102E500013970097B9F52D913C911197CD010296EA
:102E6000820F931F20915606309157062817390775
:102E700039F6309751F51092590610925806B093D2
:102E80005706A0935606BCCFD383C283408151819D
:102E9000840F951FC817D90761F44E5F5F4F888173
:102EA0009981480F591F518340838A819B81938365
:102EB00082832115310509F0B0CFF0935906E093D4
:102EC00058069ECFFD01DC01C0CF13821282D7CFFE
:102ED000B0E0A0E0EEE6F7E10C9461158C010097FC
:102EE00051F4CB010E9443168C01C801CDB7DEB767
:102EF000E0E10C947D15FC01E60FF71F9C012250C8
:102F00003109E217F30708F49DC0D901CD91DC9196
:102F10001197C617D70798F0C530D10530F3CE0109
:102F200004978617970708F3C61BD70B2297C19300
:102F3000D1936D937C93CF010E94DF16D6CF5B01B6
:102F4000AC1ABD0A4C018C0E9D1EA0915806B09182
:102F50005906512C412CF12CE12C109731F5809120
:102F60005606909157068815990509F05CC04616DB
:102F7000570608F058C08091040190910501009710
:102F800041F48DB79EB74091080150910901841B0F
:102F9000950BE817F90708F055C0F0935706E09332
:102FA0005606F90171836083A0CF8D919C91119792
:102FB00012966C90129713967C901397A815B905EA
:102FC00059F56C0142E0C40ED11CCA14DB0420F197
:102FD000AC014A195B09DA011296159780F06282FA
:102FE000738251834083D9016D937C93E114F10482
:102FF00071F0D7011396FC93EE93129776CF229639
:103000008C0F9D1FF90191838083F301EFCFF09323
:103010005906E093580669CF4816590608F42C0162
:103020007D01D3019ACFCB010E9443167C0100970A
:1030300049F0AE01B8010E942518C8010E94DF16B0
:10304000870153CF10E000E050CFFB01DC0102C04C
:1030500001900D9241505040D8F70895FC018191A4
:10306000861721F08823D9F7992708953197CF0142
:103070000895FB01DC018D91019080190110D9F3B5
:10308000990B0895FB01DC0101900D920020E1F7FE
:103090000895FB01DC014150504048F001900D9231
:1030A0000020C9F701C01D9241505040E0F708953B
:1030B000FB0151915523A9F0BF01DC014D9145174A
:1030C0004111E1F759F4CD010190002049F04D91F3
:1030D00040154111C9F3FB014111EFCF81E090E0B0
:1030E00001970895AEE0B0E0E8E7F8E10C946D15C3
:1030F0000D891E8986E08C831A8309838FEF9FE7F1
:103100009E838D83AE01475E5F4F6F89788DCE01C0
:1031100001960E9495182F813885020F131FF80120
:1031200010822E96E4E00C948915ABE0B0E0EBE958
:10313000F8E10C945F157C013B018A01FC011782C8
:103140001682838181FFC8C1CE0101965C01F7011F
:103150009381F30193FD859193FF81913F01882332
:1031600009F453C1853239F493FD859193FF819120
:103170003F01853229F4B70190E00E94851AE7CF1C
:10318000912C212C312CFFE1F31538F08B3211F109
:1031900090F4803209F1833229F137FC3CC020EDF4
:1031A000280F2A3050F536FE20C08AE0989E200D68
:1031B0001124922E06C08D3291F0803371F76894FD
:1031C00030F8F30193FD859193FF81913F018111C7
:1031D000DACF21C0689431F8689432F8F2CF68945D
:1031E00033F8EFCF689434F8ECCFEAE02E9E200D50
:1031F0001124222E689435F8E4CF8E3229F436FC5F
:1032000004C1689436F8DDCF8C3619F4689437F829
:10321000D8CF8836B1F2982F9F7D95549330E0F047
:103220008336A1F18337C1F1833509F063C02801EA
:10323000F2E04F0E511CF801C080D180692D70E082
:1032400036FC02C06FEF7FEFC6010E946F1A4C017F
:10325000689437F882010AC00C5F1F4FFFE3F983BF
:1032600088248394912C6501E89437F833FE2DC0AF
:10327000522C8114910471F5552009F468CFB701DF
:1032800080E290E00E94851A5A94F6CFF80180817E
:1032900089830E5F1F4FE4CF2801F2E04F0E511CCF
:1032A000F801C080D180692D70E036FC02C06FEF5C
:1032B0007FEFC6010E947A1A4C018201D5CFB70177
:1032C00080E290E00E94851A2A942814190409F0DB
:1032D000B0F7CECFF60137FC859137FE81916F01B3
:1032E000B70190E00E94851A51105A94F1E08F1AAC
:1032F0009108BFCF843619F0893609F077C0F801FC
:1033000037FE6BC060817181828193810C5F1F4F9A
:10331000F32DFF763F2E97FF09C09095809570950D
:1033200061957F4F8F4F9F4F689437F82AE030E0C8
:10333000A5010E94B51AC82ECA188C2C432C36FE43
:103340000CC0E89440F8C91440F434FE05C032FCC7
:1033500003C0F32DFE7E4F2E892C44FE95C0FE0146
:10336000EC0DF11D8081803309F087C0242D297E6A
:10337000422E842D8870582E43FC95C040FE8FC08D
:103380009C2C821418F42C0C922C981844FE91C09A
:10339000B70180E390E00E94851A42FE09C088E7E9
:1033A00090E041FE02C088E590E0B7010E94851AD6
:1033B000C91408F48AC0CA94D12C9FEFC91AD90A3B
:1033C000CA0CDB1CF60182916F01B70190E00E94EC
:1033D000851AAC14BD04B1F74FCF60817181072EFF
:1033E000000C880B990B0E5F1F4F92CFD32CE894E3
:1033F000D4F82AE030E0853739F1232D297FD22E09
:103400008F3601F148F48835A9F0F701868197815C
:103410002B96E2E10C947B15803749F08837A9F7A9
:10342000D4FE02C06894D2F820E130E00DC0689468
:10343000D4F8F6CF34FE03C0822F8660D82E20E168
:1034400032E002C028E030E0F801D7FE0FC0608112
:103450007181828193810C5F1F4FA5010E94B51A73
:10346000C82ECA183D2CE89437F867CF6081718167
:1034700090E080E00E5F1F4FF0CF42FC02C08394CB
:1034800078CF8394839475CF842D867809F471CF97
:10349000F6CFB70180E290E00E94851A83948214EF
:1034A000C0F3512C73CF522C5818821408F46ECFED
:1034B000F8CF842D867809F47BCF8BE241FE80E241
:1034C00047FC8DE2B70190E071CFB70180E390E057
:1034D0000E94851A9A946CCF8FEF9FEF99CFFC01D1
:1034E0000590615070400110D8F7809590958E0F2F
:1034F0009F1F0895FC016150704001900110D8F7A2
:10350000809590958E0F9F1F08950F931F93CF93D3
:10351000DF93182F092FEB018B8181FD09C01FEF6D
:103520000FEF812F902FDF91CF911F910F91089571
:1035300082FF14C02E813F818C819D81281739071D
:103540003CF4E881F981CF01019699838883108347
:103550008E819F8101969F838E83E3CFE885F985D5
:10356000812F0995892BA1F3DACFFA01AA272830F8
:1035700051F1203181F1E8946F936E7F6E5F7F4F40
:103580008F4F9F4FAF4FB1E03ED0B4E03CD0670FBC
:10359000781F891F9A1FA11D680F791F8A1F911D0F
:1035A000A11D6A0F711D811D911DA11D20D009F45F
:1035B00068943F912AE0269F11243019305D3193A1
:1035C000DEF6CF010895462F4770405D4193B3E08A
:1035D0000FD0C9F7F6CF462F4F70405D4A3318F031
:1035E000495D31FD4052419302D0A9F7EACFB4E0E2
:1035F000A6959795879577956795BA95C9F700979A
:103600006105710508959B01AC010A2E069457953A
:10361000479537952795BA95C9F7620F731F841F91
:10362000951FA01D089512E0C9EBD2E004C0FE0171
:103630000E94FA152196CA3BD107C9F7F894FFCF2B
:10364000BF04BF0400005A068000000000008B0584
:10365000EB041805D805490527053B0500000000C7
:10366000CA06EB040207A606D606BE06B20600008E
:1036700000001106EB04020710066D068506F8052A
:103680000D0A00425733007B22626F736C5F6E61DC
:103690006D65223A222573222C22626F736C5F695A
:1036A0006D6569223A222573222C22626F736C5F4A
:1036B000626174746572795F6D76223A25642C229A
:1036C000626F736C5F626F6F7475705F74696D6544
:1036D0007374616D70223A25732C2263686D6C6E71
:1036E0005F746F705F7261775F61223A25642C228C
:1036F00063686D6C6E5F746F705F7261775F62227A
:103700003A25642C2263686D6C6E5F746F705F7213
:1037100061775F617667223A25662C2263686D6C5B
:103720006E5F746F705F726573697374616E6365E9
:10373000223A25642C2263686D6C6E5F626F745F41
:103740007261775F61223A25642C2263686D6C6E2A
:103750005F626F745F7261775F62223A25642C2228
:1037600063686D6C6E5F626F745F7261775F6176C4
:1037700067223A25662C2263686D6C6E5F626F74F7
:103780005F726573697374616E6365223A25642C98
:1037900022647331386232305F626F745F74656DBA
:1037A0007065726174757265223A25662C226473A5
:1037B00031386232305F746F705F74656D7065723E
:1037C0006174757265223A25662C22736D743130EE
:1037D000305F746F705F767763223A25662C2273B0
:1037E0006D743130305F746F705F74656D706572C9
:1037F0006174757265223A25662C22736D743130BE
:10380000305F626F745F767763223A25642C22738F
:103810006D743130305F626F745F74656D706572A6
:103820006174757265223A25647D002B434E4143D5
:10383000543A20302C31002B434E4143543A20312E
:1038400000093C2D2D2D20002C41435449564500A4
:103850005044503A204143544956450050587A4C00
:1038600049494E7A576945736431336A30654D6C06
:103870006F7A3251627442374C7A417300687474C3
:10388000703A2F2F636D732E6C656967682E7368AD
:103890002F6974656D732F636F6C756D6E5F7365E3
:1038A0006E736F72730041542B4854545050415200
:1038B000413D2255524C222C2225732200504F5359
:1038C00054004745540041542B48545450504152E1
:1038D000413D225553455244415441222C224175C9
:1038E00074686F72697A6174696F6E3A20426561BB
:1038F000726572202573220041542B485454504461
:103900004154413D25642C313030303000444F5714
:103910004E4C4F41440048545450207374617475A8
:10392000733A200044617461206C656E6774683A74
:10393000200041542B4950523D393630300041541B
:103940002B474D520041542B474D4D004D6F647530
:0A3950006C6520494D45493A2000FE
:00000001FF
