:100000000C94BC050C94E4050C94E4050C94F520C8
:100010000C94F5200C94F5200C94E4050C94E40564
:100020000C94E4050C94E4050C94E4050C94E405AC
:100030000C94E4050C94E4050C94E4050C94E4059C
:100040000C9453200C94E4050C94C3200C949D2034
:100050000C94E4050C94E4050C94E4050C94E4057C
:100060000C94E4050C94E4052B4341434C4F534559
:100070003D000D0A2B43414F50454E3A00222C00C3
:100080002C22002B43414F50454E3D0022002200C0
:100090002B4353534C4346473D22736E69222C0039
:1000A00070726F746F636F6C2C30002B434153532D
:1000B0004C4346473D002B434153534C4346473D39
:1000C000002B4353534C4346473A002B4353534C66
:1000D0004346473D22637478696E646578222C300C
:1000E0000073736C2C002B434153534C4346473DE4
:1000F000002B4353534C4346473D2273736C766544
:100100007273696F6E222C302C33002B43414349AC
:10011000443D002B4341524543563A002B43415244
:100120004543563D002B4341524543563A002B432D
:1001300041524543563F002B434153544154453AA5
:10014000002B434153544154453F000D0A534D5336
:100150002052656164790D0A004453543A20002B03
:1001600043545A563A002A50535554545A3A002A86
:1001700050534E5749443A002B4341535441544540
:100180003A002B434144415441494E443A002B43E9
:1001900041524543563A000D0A2B434153454E44C4
:1001A0003A003E002B434153454E443D00534D53CE
:1001B0002052656164790045300049000D0A2B43E7
:1001C0004E4143543A002B434E4143543F002B438E
:1001D000474154543A002B43474154543F000D0AC1
:1001E0002B415050205044503A20444541435449FB
:1001F0005645000D0A2B415050205044503A2041A2
:1002000043544956450022002B434E4143543D314F
:100210002C22002B434E4346473D312C22002B43DA
:10022000474154543D31002B434744434F4E543DC6
:10023000312C224950222C22002B434E54503A009C
:100240002B434E5450002B434E54503D22002B4321
:100250004E54504349443D310053657276657220D7
:10026000646973636F6E6E656374656400426F6486
:1002700079206C656E6774682069733A2000526556
:1002800073706F6E73653A005468652072657370A1
:100290006F6E7365206973206368756E6B656400AB
:1002A000436F6E74656E74206C656E677468206948
:1002B000733A2000526573706F6E736520486561F4
:1002C000646572733A00526573706F6E7365207364
:1002D000746174757320636F64653A2000666169A8
:1002E0006C656420746F20636F6E6E65637400507C
:1002F0006572666F726D696E672048545450532062
:1003000047455420726571756573742E2E2E20003A
:10031000436F6E6E656374696E6720746F20002D85
:100320002D2D2D2D424547494E20434552544946D7
:1003300049434154452D2D2D2D2D0A4D49494653F4
:1003400044434342444367417749424167495342EA
:1003500046476561697232637A5142763777433135
:100360004179594D62465A4D413047435371475385
:1003700049623344514542437755410A4D444978D7
:10038000437A414A42674E5642415954416C565451
:100390004D525977464159445651514B4577314D4D
:1003A0005A58516E63794246626D4E7965584230B3
:1003B0004D51737743515944565151440A45774A38
:1003C000534D7A4165467730794D6A41344D7A45CF
:1003D000774F4441774D546861467730794D6A458F
:1003E000784D6A6B774F4441774D5464614D426359
:1003F000784654415442674E5642414D540A44484F
:100400005A77626935735A576C6E6143357A614425
:100410004343415349774451594A4B6F5A4968768F
:10042000634E415145424251414467674550414402
:10043000434341516F4367674542414C504F0A580F
:1004400077453530324F786C346C5761475654736A
:1004500054425A716D57706C34745A544E486E4FF2
:100460004F345236412F654D456F425978484B6A9B
:10047000324867376267562B6150654E7A68700A5A
:100480004A7952522F5434533179443437476A628F
:1004900030324B694E62374D4255323748426870B0
:1004A0004139634D685A486C36312F555869364C7E
:1004B000566F2F536C7839306E376C355462726CCE
:1004C0000A646739413436574E7679573550633868
:1004D0004C754D4F3467304F66386D7476616E568B
:1004E00038653976714B49494A3864337972376FC8
:1004F0004F54594372676D76325573374736524CB5
:10050000530A48704438534151664B4F544A567011
:100510004E5A634E654E65506D4439596E75476E3F
:1005200037713565556B75506C356E743268617115
:100530003646635A79475031464E7845565A585791
:1005400070310A2F7976574A6348412F5934542F16
:1005500056765961784D616B753248715667425ACB
:10056000426E315833586F43465A52755162594D55
:10057000466744495279636830304B4D54327A575C
:100580003637730A6B325A635172526D41396C5966
:100590004F546E4C617A55434177454141614F4319
:1005A000416E457767674A744D4134474131556420
:1005B000447745422F775145417749466F4441641E
:1005C00042674E560A48535545466A415542676749
:1005D000724267454642516344415159494B7759EC
:1005E0004242515548417749774441594456523027
:1005F000544151482F424149774144416442674E3A
:1006000056485134450A4667515556574D384B4266
:100610006B7A6659635A647753677151344733690B
:100620007049324F3477487759445652306A4242C3
:100630006777466F41554643367A46376459567355
:10064000757555416C410A35682B766E597355772F
:10065000735977565159494B775942425155484140
:10066000514545535442484D4345474343734741E1
:10067000515546427A41426868566F644852774FF6
:10068000693876636A4D750A627935735A57356AE7
:1006900063693576636D6377496759494B7759428A
:1006A000425155484D414B47466D6830644841368C
:1006B0004C7939794D7935704C6D786C626D4E7925
:1006C0004C6D39795A7938770A514159445652302C
:1006D0005242446B774E34494D595842774C6D78AD
:1006E0006C6157646F4C6E4E6F6767786A62584DE5
:1006F00075624756705A32677563326943433231C7
:100700006A4C6D786C6157646F0A4C6E4E6F676708
:10071000783263473475624756705A326775633270
:100720006777544159445652306742455577517A5C
:10073000414942675A6E67517742416745774E7724
:10074000594C4B775942424147430A33784D424115
:100750005145774B44416D42676772426745464257
:10076000516343415259616148523063446F764C42
:10077000324E77637935735A58527A5A57356A63CD
:100780006E6C7764433576636D63770A67674546B9
:1007900042676F724267454541645A35416751432C
:1007A000424948324249487A415045416477424281
:1007B000794D717833794A47536844476F546F4A8B
:1007C000516F6465546A474C477750720A363076E9
:1007D0004861504351597059473967414141594C1B
:1007E0007A4954383241414145417742494D455952
:1007F000434951446D58757774746D666C71354C0E
:1008000076514C426B6C697A6B367542760A74434A
:1008100049743178564F653134473846553134770D
:100820004968414D58574467706F45595A36695465
:100830004246413337426D4B4E66456454783646E6
:100840006572384A6453502F726C747248770A414B
:100850004859414B586D2B384A34354F53487756D9
:100860006E4F665936563335623558665A78674347
:10087000766A355456306D58435664783451414148
:100880004147433879452B2F77414142414D410A39
:10089000527A424641694274626475365A32494816
:1008A000433848315551424355717136724F335078
:1008B00063596137575A6A47652B2B455357713532
:1008C00034514968414C6978745663466A6A4536C2
:1008D0000A45614B487673614A50716865595649BB
:1008E0004637476A4366314E3973776D675A6F7280
:1008F000484D413047435371475349623344514552
:10090000424377554141344942415141542B72543D
:10091000340A4F6B4F684A5247506941556C4F6AD1
:100920006A335061544C57717A32436C6B52733353
:10093000434E6A336A6E525A413643743732616E9F
:10094000704979686C59584F445644363148732F72
:100950004B760A542F4F35494770756D475A727060
:1009600078726D6D4A59586B72535A6831322F68DC
:100970004B7753786E306E7131635248344B6174EB
:10098000587257794B3543637156666E6342634ABA
:100990004170610A45585750386855393772583395
:1009A0004658734B3639337675416735646C6A3512
:1009B000352B64614B742B6D706D316739386A3536
:1009C0005A6441772B2B424733747A6857342B7A19
:1009D000584359430A314469726B3137636C4D6136
:1009E00036614E714C32662B647954742B2B7846E9
:1009F00065336C776A57514664734E6A5976736EE5
:100A0000616551624659533456394F686A67674980
:100A1000654643744F0A5079345A66712F387445CD
:100A2000466A3355646756585A4B69554363627931
:100A30004C45464B32756A4E626D6734613754627D
:100A4000394533446D54592B6D7151615A5A435194
:100A50006735794665710A337936706A58626D6F09
:100A6000527170726646520A2D2D2D2D2D454E4421
:100A70002043455254494649434154452D2D2D2D7F
:100A80002D0A0000000000240027002A00000000BA
:100A9000080002010000030407000000000000003D
:100AA000002B4346554E3D002B43455245473A00E7
:100AB0002B43475245473A002B435245473A002BB8
:100AC00043474154543D30002B434E4143543D3045
:100AD00000002B4342415443484B3D31002B434CD3
:100AE00054533D31002B434D45453D3000453000CA
:100AF0004F4B0D0A004E4F54205245414459004E71
:100B00004F5420494E5345525445440053494D20BB
:100B100050554B0053494D2050494E0052454144D9
:100B200059002B4350494E3A002B4350494E3F0049
:100B30004552524F520D0A000000000023002600CB
:100B4000290000000000250028002B0004040404F4
:100B50000404040402020202020203030303030367
:100B60000102040810204080010204081020010244
:100B7000040810206D215B2C11241FBECFEFD8E09C
:100B8000DEBFCDBF26E0A6ECB2E001C01D92AE3CB8
:100B9000B207E1F712E0A0E0B1E0EEE3F2E602C056
:100BA00005900D92A63CB107D9F715E0CBEBD5E047
:100BB00004C02197FE010E94C92ECA3BD107C9F784
:100BC0000E94F9220C9412310C94000090E0FC0178
:100BD000E357F54F2491FC01E05AF44F3491FC01A6
:100BE000E45BF44FE491EE23C9F0222339F0233083
:100BF00001F1A8F4213019F1223029F1F0E0EE0FD3
:100C0000FF1FEE5BF44FA591B4918FB7F894EC9170
:100C1000611126C030953E233C938FBF0895273045
:100C2000A9F02830C9F0243049F7809180008F7DE9
:100C300003C0809180008F7780938000DFCF84B5E0
:100C40008F7784BDDBCF84B58F7DFBCF8091B000E3
:100C50008F778093B000D2CF8091B0008F7DF9CF95
:100C60003E2BDACFCF93DF9390E0FC01E05AF44FB4
:100C70002491845B944FFC0184918823C9F090E017
:100C8000880F991FFC01ED57F54FA591B491FC0118
:100C9000EE5BF44FC591D49161110DC09FB7F894EC
:100CA0008C91209582238C938881282328839FBF51
:100CB000DF91CF910895623051F49FB7F8943C9141
:100CC000822F809583238C93E8812E2BEFCF8FB7D3
:100CD000F894EC912E2B2C938FBFEACF3FB7F8946A
:100CE0008091100390911103A0911203B09113030E
:100CF00026B5A89B05C02F3F19F00196A11DB11D77
:100D00003FBFBA2FA92F982F8827BC01CD01620FB2
:100D1000711D811D911D43E0660F771F881F991F6C
:100D20004A95D1F708958F929F92AF92BF92CF923A
:100D3000DF92EF92FF926B017C010E946E064B01E5
:100D40005C01C114D104E104F104B9F00E946E0603
:100D5000681979098A099B09683E734081059105E4
:100D600080F321E0C21AD108E108F10888EE880E6C
:100D700083E0981EA11CB11CE4CFFF90EF90DF90A0
:100D8000CF90BF90AF909F908F9008952FB7F89419
:100D900060910C0370910D0380910E0390910F03ED
:100DA0002FBF0895CF92DF92EF92FF920F931F9380
:100DB000CF93DF938C01C62F0E94C6066B017C0186
:100DC0000C2E000CDD0B0E94C6066C197D098E09E5
:100DD0009F09683E734081059105A0F50E94C606F3
:100DE0006C197D098E099F09683E73408105910544
:100DF00090F4F80180819181DC01ED91FC910084F7
:100E0000F185E02D0995892B31F460E070E0CB018C
:100E10000E949306E3CFF80180819181DC01ED917E
:100E2000FC910284F385E02D09958C179D0759F6F6
:100E300081E0DF91CF911F910F91FF90EF90DF90B4
:100E4000CF90089580E0F5CFFC01248135816217B1
:100E5000730748F480819181009729F0860F971FCE
:100E6000FC018081089580E008950F931F93CF9334
:100E7000DF93EC010E94C606688779878A879B8783
:100E8000E881F9810484F585E02DCE01099597FF6D
:100E900015C00E94C606088519852A853B85601BFA
:100EA000710B820B930B0C811D812E813F8160178A
:100EB00071078207930720F38FEF9FEFDF91CF91A8
:100EC0001F910F910895BF92CF92DF92EF92FF9200
:100ED0000F931F93CF93DF938C01C8010E943507B6
:100EE000EC0197FD5DC0D801ED91FC910284F38582
:100EF000E02D8D32910521F0C0970A9708F04AC085
:100F0000C12CD12C7601B12CC130D105D9F0CD3214
:100F1000D10509F442C0CE01C0970A9798F4AAE01F
:100F2000B0E0A70196010E94492E6E01DD0FEE0888
:100F3000FF08C60ED71EE81EF91EB0E3CB1AD10873
:100F4000E108F108D801ED91FC910284F385E02DD0
:100F5000C8010995C8010E943507EC01C0970A979E
:100F600098F2C130D10581F2BB2041F0F094E094B9
:100F7000D094C094C11CD11CE11CF11CC701B60166
:100F8000DF91CF911F910F91FF90EF90DF90CF9065
:100F9000BF900895C8010995A0CFBB24B394D2CFC8
:100FA000C12CD12C7601EACF0F931F93CF93DF93FF
:100FB000EC010E94C606688779878A879B87E8814B
:100FC000F9810284F385E02DCE01099597FF15C0C4
:100FD0000E94C606088519852A853B85601B710B12
:100FE000820B930B0C811D812E813F81601771074D
:100FF0008207930720F38FEF9FEFDF91CF911F912F
:101000000F910895DC01ED91FC910190F081E02DAC
:101010000994DB0114964D915C9115976D917C912B
:10102000DC01ED91FC910280F381E02D0994EF92B7
:10103000FF920F931F93CF93DF938C017B01D0E03E
:10104000C0E0F701EC0FFD1F6491662361F0D80149
:10105000ED91FC910190F081E02DC8010995892B5B
:1010600011F02196EECFCE01DF91CF911F910F911C
:10107000FF90EF900895AF92BF92CF92DF92EF92E0
:10108000FF920F931F93CF93DF936C017B018B0132
:10109000040F151FEB015E01AE18BF08C017D10782
:1010A00059F06991D601ED91FC910190F081E02D0C
:1010B000C6010995892B79F7C501DF91CF911F9161
:1010C0000F91FF90EF90DF90CF90BF90AF90089579
:1010D000FC01538D448D252F30E0842F90E0821B3E
:1010E000930B541710F0CF96089501970895FC01C3
:1010F000918D828D981761F0A28DAE0FBF2FB11D1B
:101100005D968C91928D9F5F9F73928F90E0089572
:101110008FEF9FEF0895FC01918D828D981731F02C
:10112000828DE80FF11D858D90E008958FEF9FEF80
:101130000895FC01918D228D892F90E0805C9F4F56
:10114000821B91098F739927089584E193E00E948F
:10115000990821E0892B09F420E0822F089580E08E
:1011600090E0892B29F00E94A50881110C940000C1
:101170000895FC01A48DA80FB92FB11DA35ABF4F2C
:101180002C91848D90E001968F739927848FA68986
:10119000B7892C93A089B1898C91837080648C93DA
:1011A000938D848D981306C00288F389E02D808189
:1011B0008F7D80830895EF92FF920F931F93CF93BB
:1011C000DF93EC0181E0888F9B8D8C8D98131AC082
:1011D000E889F989808185FF15C09FB7F894EE8969
:1011E000FF896083E889F9898081837080648083C6
:1011F0009FBF81E090E0DF91CF911F910F91FF9011
:10120000EF900895F62E0B8D10E00F5F1F4F0F73B8
:101210001127E02E8C8D8E110CC00FB607FCFACF73
:10122000E889F989808185FFF5CFCE010E94B90850
:10123000F1CFEB8DEC0FFD2FF11DE35AFF4FF08244
:101240009FB7F8940B8FEA89FB8980818062CFCFAA
:10125000CF93DF93EC01888D8823B9F0AA89BB89ED
:10126000E889F9898C9185FD03C0808186FD0DC0D8
:101270000FB607FCF7CF8C9185FFF2CF808185FFF9
:10128000EDCFCE010E94B908E9CFDF91CF9108954B
:1012900020910803309109032817390771F49091C0
:1012A000060380910703981741F0E0910603F0E0F0
:1012B000EA53FD4F808190E008958FEF9FEF0895EE
:1012C0000895EF92FF920F931F93CF93DF93DC016A
:1012D0005C96ED90FC905D97E114F10479F481E067
:1012E00090E013969C938E93129790E080E0DF91AC
:1012F000CF911F910F91FF90EF9008955196ED912E
:10130000FC91529750968C915097982F90950FB7CB
:101310005E962C915E97122F127021FD6095F894C5
:101320002081112319F1282B2083E7012197F1F760
:1013300028E0462F50E0308160FF1AC0382B308300
:10134000E7012197F1F7BA0175956795215089F763
:10135000112381F08081892380830FBF5C968D915A
:101360009C910197F1F781E090E0C1CF2923DCCF78
:101370003923E5CF9081892BEFCF2091080330915D
:1013800009032817390771F4809107032091060398
:1013900090E0805C9F4F821B910960E470E00E94A6
:1013A000AE2E089590E080E00895209108033091DA
:1013B000090328173907B9F49091060380910703B0
:1013C000981789F0E0910603F0E0EA53FD4F808121
:1013D0002091060330E02F5F3F4F2F733327209378
:1013E000060390E008958FEF9FEF0895CF93DF936A
:1013F000EC01E881F9810284F385E02D0995288DBF
:10140000398D482F082E000C550BB9016850710911
:101410006330710508F445C02530310509F445C035
:101420002730310509F454C02430310509F074C067
:10143000A8A1B9A19C91981314C09D012F5F3F4FA3
:1014400039A328A311969C91911108C025E030E0A2
:10145000398F288F1D8E1C8E1F8E1E8E8A3009F5A7
:1014600049C0EAA1FBA1908198130FC09F012F5F93
:101470003F4F3BA32AA391819111F0CF91E09CA310
:1014800026E030E0398F288FE9CFAB59B140C1F762
:10149000EC5AF140A9F78D3099F787E090E0998FE9
:1014A000888FCA01DF91CF910895BA016053710905
:1014B0006A30710528F7EC8DFD8D9AE09E9F9001B2
:1014C0009F9F300D1124260F371F3D8F2C8FC6CFC5
:1014D0008A3039F78CA18823D1F089E090E0998F88
:1014E000888F1EA21DA2288D398D285031092330E6
:1014F0003105B8F284E090E0998F888F8BE991E014
:1015000099A388A38CEA91E09BA38AA3CACF88E021
:1015100090E0998F888FE7CF8A3019F6E4CFCF9388
:10152000DF93EC018C859D85DC01ED91FC910288B7
:10153000F389E02D0995288D398D28503109233004
:10154000310568F42C8D3D8D1216130644F497FD79
:1015500006C02E8D3F8D280F391F3F8F2E8FDF91B4
:10156000CF910895CF93DF93EC018CA181110EC030
:101570008C859D85DC01ED91FC910284F385E02D45
:10158000099597FF0FC0DF91CF910895E881F98108
:101590000084F185E02DCE010995892B49F78FEF65
:1015A0009FEFF1CF488D598D9A0128503109233092
:1015B000310548F72C8D3D8D1216130634F42E8D0F
:1015C0003F8D2F5F3F4F3F8F2E8F4A305105D9F609
:1015D0002DA13EA1215031093EA32DA3232B99F625
:1015E00029E030E0398F288FCECFCF92DF92EF9273
:1015F000FF920F931F93CF93DF93EC01888D998D0A
:101600000897039760F10E94C6066B017C01888DE4
:10161000998D0897039718F10E94C6066C197D09E9
:101620008E099F090FA118A529A53AA56017710772
:1016300082079307A0F4E881F9810084F185E02D09
:10164000CE010995892B21F0CE010E94F609DBCF4E
:1016500068EE73E080E090E00E949306D8CF8C8D16
:101660009D8DDF91CF911F910F91FF90EF90DF90B3
:10167000CF900895CF93DF93EC018C859D85DC019D
:10168000ED91FC910488F589E02D0995198E188E4D
:101690001B8E1A8E8FEF9FEF9D8F8C8F1F8E1E8E4D
:1016A0008BE991E099A388A38CEA91E09BA38AA39C
:1016B0001CA21EA21DA280E395E7A0E0B0E08FA3CC
:1016C00098A7A9A7BAA7DF91CF910895DC01ED9162
:1016D000FC910688F789E02D099591E0811101C000
:1016E00090E0892F0895CF93DF93EC01E881F98191
:1016F0000084F185E02D0995892B21F48D89DF91F6
:10170000CF91089581E0FBCFFC01ED55FD4F208185
:101710003181820F931FFC01878990E00895CF9358
:10172000DF931F92CDB7DEB7DC01ED91FC9102880B
:10173000F389E02D41E050E0BE016F5F7F4F0995D6
:10174000019731F4898190E00F90DF91CF91089556
:101750008FEF9FEFF9CFDC011C96ED91FC9180811A
:101760009181DC01ED91FC910680F781E02D0994D7
:10177000CF93DF931F92CDB7DEB76983DC01ED9184
:10178000FC910280F381E02D41E050E0BE016F5FEB
:101790007F4F09950F90DF91CF910895FC0147A3EA
:1017A00050A761A772A70895FC0167A170A581A544
:1017B00092A5089521E0FC0184859585892B09F483
:1017C00020E0822F0895DC011C968D919C91DC0114
:1017D000ED91FC910688F789E02D0994DC011C96B7
:1017E0008D919C91DC01ED91FC910088F189E02DB7
:1017F00009940F931F93CF93DF9300D000D000D0B4
:10180000CDB7DEB7DC011C968D919C91DC01ED918A
:10181000FC910684F785E02D2BE731E03A8329839C
:10182000DB0112960D911D912D913C9115970B8323
:101830001C832D833E83BE016F5F7F4F09952696E3
:101840000FB6F894DEBF0FBECDBFDF91CF911F91D1
:101850000F910895DC011C968D919C91DC01ED9116
:10186000FC910680F781E02D0994DC011C968D9196
:101870009C91DC01ED91FC910484F585E02D0994A7
:101880000F931F93CF93DF93FC01208D318D285050
:1018900031092330310510F020E00EC0EC010E9428
:1018A000F50A0196C9F30E8D1F8DCE010E94F50A2F
:1018B00021E00817190784F3822FDF91CF911F9140
:1018C0000F910895DC01ED91FC91028CF38DE02DD8
:1018D0002BE430E00994DC01ED91FC91028CF38D56
:1018E000E02D2BE430E0099490E080E00895FB01C6
:1018F00001900020E9F73197AF01461B570BDC013F
:10190000ED91FC910280F381E02D09948F929F92DA
:10191000AF92BF92EF92FF920F931F93CF93DF93FB
:10192000CDB7DEB7A1970FB6F894DEBF0FBECDBF1F
:101930007C01FA01CB0119A2223008F42AE08E01C1
:101940000F5D1F4F822E912CB12CA12CBF01A50140
:1019500094010E94272EF901CA016A300CF5605DDE
:10196000D8016E938D01232B242B252B79F790E042
:1019700080E0109721F0BD01C7010E94770CA1966D
:101980000FB6F894DEBF0FBECDBFDF91CF911F9190
:101990000F91FF90EF90BF90AF909F908F90089520
:1019A000695CDECF462F50E070E060E02AE00C94E6
:1019B000860C8F929F92AF92BF92CF92DF92EF925E
:1019C000FF920F931F93CF93DF937C018B014C0108
:1019D00082E0880E911C5701E5E0AE0EB11CD0E00C
:1019E000C0E0F40161914F01C8010E94D20C6C016A
:1019F0006EE2C8010E9402088C0D9D1DC80FD91F00
:101A00008A149B0471F7F7016581C8010E94D20C0A
:101A10008C0F9D1FDF91CF911F910F91FF90EF9041
:101A2000DF90CF90BF90AF909F908F9008956FE020
:101A300072E00C94770CCF93DF93BC0184E193E0C8
:101A40000E940908EC0184E193E00E94170D8C0FBD
:101A50009D1FDF91CF910895CF92DF92EF92FF9279
:101A60000F931F93CF93DF938C016B01770FEE08D9
:101A7000FF08F7FE1FC06DE20E940208EC01442738
:101A80005527BA014C195D096E097F092AE0C80182
:101A90000E94860CC80FD91FC8010E94170D8C0F19
:101AA0009D1FDF91CF911F910F91FF90EF90DF90DD
:101AB000CF9008952AE0B701A6010E94860CEC01A0
:101AC000EBCFCF93DF93BC0184E193E00E94170832
:101AD000EC0184E193E00E94170D8C0F9D1FDF91B4
:101AE000CF9108950F931F93CF93DF938C01D0E094
:101AF000C0E06115710519F00E94770CEC01C80176
:101B00000E94170D8C0F9D1FDF91CF911F910F9198
:101B10000895EF92FF920F931F93CF93DF93EC0101
:101B20008B017A01888D998D029744F48C859D856F
:101B30000E94170D82E090E0998F888F8C859D859B
:101B4000DC01ED91FC910280F381E02DA701B80149
:101B5000DF91CF911F910F91FF90EF9009941F9308
:101B6000CF93DF93EC01162F888D998D029744F463
:101B70008C859D850E94170D82E090E0998F888F5B
:101B80008C859D85DC01ED91FC910190F081E02D2B
:101B9000612FDF91CF911F9109946115710511F0AB
:101BA0000C94770C90E080E00895FF920F931F93C0
:101BB000CF93DF93F62E8A01CFE8D6E0BC0188816F
:101BC00099810E94CD0D6F2D888199810E94020814
:101BD000B80188819981DF91CF911F910F91FF907A
:101BE0000C94CD0DEF92FF920F931F93CF93DF9341
:101BF0007C01CFE8D6E00A811B8167EC71E0888127
:101C000099810E94CD0DB701888199810E941708A2
:101C1000A80162E282E191E00E94D50D888199815C
:101C2000DC01ED91FC910680F781E02D099560E0E3
:101C300070E0CB01DF91CF911F910F91FF90EF905A
:101C40000C949306AF92BF92DF92EF92FF920F93A4
:101C50001F93CF93DF93EC015B01D42E8901EA80BF
:101C6000FB8067EC71E0888199810E94CD0DB50100
:101C7000888199810E9417086D2D888199810E9421
:101C8000D20C6CE2888199810E940208A80170E060
:101C900060E02AE0888199810E94860CB7018881E2
:101CA00099810E94CD0D88819981DC01ED91FC9193
:101CB0000680F781E02D099560E070E0CB01DF91AF
:101CC000CF911F910F91FF90EF90DF90BF90AF9059
:101CD0000C949306EF92FF920F931F93CF93DF9391
:101CE000EC017A018901888199810E94CD0DB701AB
:101CF000888199810E941708B80188819981DF91B4
:101D0000CF911F910F91FF90EF900C94CD0DCF9339
:101D1000DF93EC01AB012A813B8167EC71E00E940B
:101D20006A0E88819981DC01ED91FC910680F78132
:101D3000E02D099560E070E0CB01DF91CF910C942C
:101D40009306AF92BF92CF92DF92EF92FF920F93E2
:101D50001F93CF93DF93EC015B018A017901CA8065
:101D6000DB8067EC71E0888199810E94CD0DB5011F
:101D7000888199810E9417089601A701B801CE01B8
:101D80000E946A0E88819981DC01ED91FC910680A8
:101D9000F781E02D099560E070E0CB01DF91CF91F4
:101DA0001F910F91FF90EF90DF90CF90BF90AF9079
:101DB0000C949306CF92DF92FF920F931F93CF93D1
:101DC000DF93EC016B01F42E0A811B8167EC71E05B
:101DD000888199810E94CD0DB601888199810E94E8
:101DE00017086F2D888199810E94D20CB8018881D3
:101DF00099810E94CD0D88819981DC01ED91FC9142
:101E00000680F781E02D099560E070E0CB01DF915D
:101E1000CF911F910F91FF90DF90CF900C9493067C
:101E20000E94B130AF92BF92CF92DF92EF92FF92B9
:101E30000F931F93CF93DF93DC01CD90DC9011972C
:101E4000C114D10439F01496CD91DC918C01760146
:101E5000209761F4DF91CF911F910F91FF90EF9048
:101E6000DF90CF90BF90AF90089575015701BFEFFD
:101E7000AB1ABB0AF7018081082E000C990B0E9457
:101E8000BE2D892B91F72197CC0DDD1D8881082E61
:101E9000000C990B0E94BE2D892B29F0CE15DF0571
:101EA00010F02197F3CFAE014F5F5F4F4E195F09DE
:101EB000D80115965C934E931497CE14DF0420F44A
:101EC000B701C6010E94C230D801ED91FC91119773
:101ED00014968D919C91E80FF91F1082BBCF2F9221
:101EE0003F924F925F926F927F928F929F92AF92AA
:101EF000BF92CF92DF92EF92FF920F931F93CF93F7
:101F0000DF9300D000D0CDB7DEB7FC014480558010
:101F10004114510409F412C1FB01648075806114FD
:101F2000710409F40BC17A016B019C838B83FA0164
:101F3000A480B580A618B708FC0100811181A11406
:101F4000B104B9F4F60160817181C8010E94F830D2
:101F50008C01009709F4F2C0F7016081718144811E
:101F600055810E94C230F70184819581080F191FA5
:101F7000E9CFB7FC10C0FB01208031804201C801CD
:101F8000B1010E94F830009709F44EC0860D971DEC
:101F90008A0C9B1CF5CF3801F60160817181C80164
:101FA0000E94F8302C01009729F14C01801A910A07
:101FB000A401B801C3010E94C230680C791CF7016A
:101FC0006081718144815581C3010E94C230F70153
:101FD00084809580680C791CF60104811581040DBC
:101FE000151DEB81FC81848195818A0D9B1D958354
:101FF0008483D2CFB801C3010F900F900F900F9040
:10200000DF91CF911F910F91FF90EF90DF90CF90D4
:10201000BF90AF909F908F907F906F905F904F9008
:102020003F902F900C94F1304814590409F486C065
:10203000EB81FC81828193818815990578F4B40144
:102040006F5F7F4FC8010E94F42F009709F476C09C
:10205000EB81FC819183808393828282EB81FC817E
:10206000048115810150110917FD68C03801F6017E
:10207000248035802114310409F460C0EB81FC8197
:10208000848095808114910409F458C082149304CB
:1020900008F454C00815190520F03401F1E06F1A56
:1020A0007108EB81FC8140805180C2010FEF1FEF6E
:1020B0009201260D371D3A832983E981FA81E817B9
:1020C000F90788F0F601608171810E94F83000976D
:1020D00051F09C01241935096216730608F4980121
:1020E00001968901EACF17FD29C0200E311EC201D9
:1020F000820D931DA40142195309BC018A0D9B1D39
:102100000E94CB30EB81FC81848195818A0D9B1DDF
:102110009583848320813181820F931FFC0110827B
:10212000EB81FC8180819181F70160817181448123
:102130005581800F911F0E94C23094CF0F900F9055
:102140000F900F90DF91CF911F910F91FF90EF9023
:10215000DF90CF90BF90AF909F908F907F906F90C7
:102160005F904F903F902F9008950F931F93CF93C0
:10217000DF93EC0188819981009759F02A813B8196
:102180002617370730F081E0DF91CF911F910F9133
:1021900008958B016F5F7F4F0E94F42F009759F0D5
:1021A000998388831B830A832C813D81232B59F7D4
:1021B000FC011082E8CF80E0E7CFEF92FF920F930F
:1021C0001F93CF93DF936115710541F480E0DF9198
:1021D000CF911F910F91FF90EF90089541155105F8
:1021E000B1F07B01EC010C811D81040F151FB801BA
:1021F0000E94B510882351F3288139818C819D81FB
:10220000B701820F931F0E94F1301D830C8381E080
:10221000DECF41E050E069E372E00C94DD10CF9333
:10222000DF9300D0CDB7DEB769831A8241E050E07A
:10223000BE016F5F7F4F0E94DD100F900F90DF9106
:10224000CF910895FC0124813581FB0144815581A2
:1022500024173507A0F0FC0180819181009779F067
:10226000FB01608171816115710549F0241B350BFB
:10227000820F931F0E94E83021E0892B09F020E0B3
:10228000822F0895EF92FF920F931F93CF93DF93C6
:1022900000D000D0CDB7DEB77C01862F4AE08E019A
:1022A0000F5F1F4FB80190E00E94D72DF8010190F9
:1022B0000020E9F73197AF01401B510BB801C7016E
:1022C0000E94DD100F900F900F900F90DF91CF9133
:1022D0001F910F91FF90EF900895CF93DF93EC0142
:1022E00088819981009711F00E946B2F19821882C2
:1022F0001D821C821B821A82DF91CF910895EF927A
:10230000FF920F931F93CF93DF93EC017B018A0120
:10231000BA010E94B51081110BC0CE010E946D114F
:10232000CE01DF91CF911F910F91FF90EF90089513
:102330001D830C83B701888199810E94F130F0CF11
:10234000FB0101900020E9F73197AF01461B570BC5
:102350000C947F11CF93DF93EC01FB018617970755
:1023600049F0608171816115710541F044815581A9
:102370000E947F11CE01DF91CF9108950E946D11CF
:10238000F9CFFC011182108213821282158214820D
:102390000C94AA11FC011182108213821282158200
:1023A00014826115710551F0FB0101900020E9F7DD
:1023B0003197AF01461B570B0C947F1108950F9373
:1023C0001F93CF93DF93EC018B0161E172E00E94D8
:1023D000CA1160E170E0CE010E94B510F80162817F
:1023E000CE010E944211CE010E940911F8016381C1
:1023F000CE010E944211CE010E940911F8016481B0
:10240000CE010E944211CE010E940911F80165819E
:10241000CE010E944211CE01DF91CF911F910F9109
:102420000895FC0180819181009711F00C946B2F2D
:102430000895CF92DF92EF92FF920F931F93CF9365
:10244000DF93CDB7DEB762970FB6F894DEBF0FBE4D
:10245000CDBF8C016A01FB0182819381A481B5818A
:102460008F87988BA98BBA8BF80120813181F90174
:10247000E28CF38C2BE731E03A8329838B839C83B6
:10248000AD83BE83BE016F5F7F4FCE0107960E9472
:10249000DF116F8178852BE430E0A601C801F701D8
:1024A00009958C01CE0107960E941112C80162960F
:1024B0000FB6F894DEBF0FBECDBFDF91CF911F9155
:1024C0000F91FF90EF90DF90CF900895CF92DF9221
:1024D000EF92FF920F931F93CF93DF93CDB7DEB7A9
:1024E00062970FB6F894DEBF0FBECDBF8C016A01B4
:1024F000FB0182819381A481B5818F87988BA98B01
:10250000BA8BF80120813181F901E28CF38C2BE741
:1025100031E03A8329838B839C83AD83BE83BE01E4
:102520006F5F7F4FCE0107960E94DF116F81788524
:102530002BE430E0A601C801F70109958C01CE011A
:1025400007960E941112C80162960FB6F894DEBF7A
:102550000FBECDBFDF91CF911F910F91FF90EF90F4
:10256000DF90CF900895EF92FF920F931F93CF9338
:10257000DF93EC01198218821B821A821D821C8251
:102580006115710509F18B01CB010E94CE2D7C01F3
:10259000BC01CE010E94B510811109C0CE01DF91AE
:1025A000CF911F910F91FF90EF900C946D11FD82D0
:1025B000EC82B80188819981DF91CF911F910F91B1
:1025C000FF90EF900C94C72DDF91CF911F910F9149
:1025D000FF90EF900895EF92FF920F931F93CF9388
:1025E000DF9300D0CDB7DEB78C01DC0158968D911A
:1025F0009C910997F9F4F80184859585DC01ED91AA
:10260000FC910084F185E02D0995892B99F0F80162
:1026100084859585DC01ED91FC910284F385E02DA4
:102620000995F82EBAE08B133CC08AE090E0F801DF
:10263000918F808FD80158968D919C9159970A97C8
:1026400061F495968D919C919697892B31F489E050
:1026500090E059969C938E935897F801808D918DB8
:10266000099709F444C084859585DC01ED91FC91BE
:102670000084F185E02D0995F801208D318D2A30F7
:10268000310531F425A136A1281739070CF4C90109
:102690000F900F90DF91CF911F910F91FF90EF90CE
:1026A0000895FDE08F1709F4A6CF082E000C990BB2
:1026B0000E94B630892B09F49ECF1A821982F982C2
:1026C000D8019596ED90FC9084E0EE0CFF1C8A9565
:1026D000E1F740E150E070E060E0CE0101960E9439
:1026E000892C6E0D7F1DF80176A365A384CF90E041
:1026F00080E0CECF8F929F92AF92BF92CF92DF9227
:10270000EF92FF920F931F93CF93DF9300D000D0EF
:1027100000D01F92CDB7DEB7FC0180809180CE0142
:1027200001967C0110E000E05C01C62E660FDD081A
:10273000C4010E94D40797FD0BC08C159D0541F084
:10274000F70181937F010F5F1F4F0730110581F75C
:10275000C80101970697D0F4F501E00FF11F108230
:10276000C5010E94A02D27960FB6F894DEBF0FBEBC
:10277000CDBFDF91CF911F910F91FF90EF90DF9030
:10278000CF90BF90AF909F908F90089581EF98ED7C
:10279000EACF2F923F924F925F926F927F928F92E9
:1027A0009F92AF92BF92CF92DF92EF92FF920F93E0
:1027B0001F93CF93DF93CDB7DEB72D970FB6F89465
:1027C000DEBF0FBECDBF2C014A875B876C877D873C
:1027D00039011801F986E886860160E470E0C901D4
:1027E0000E94B5100E94C6066B017C0160E070E09B
:1027F000CB010E949306D2018D919C91DC01ED9159
:10280000FC910084F185E02D0995181619060CF04D
:1028100090C160E070E0CB010E949306F2018081DC
:102820009181DC01ED91FC910284F385E02D099505
:1028300018160CF7682FC3010E940F1121143104E0
:1028400099F0B101CE0101960E94B312BE016F5FF3
:102850007F4FC3010E9422118F83CE0101960E94F7
:102860001112BF81B1117FC1E885F985309799F0C8
:10287000BF01CE0101960E94B312BE016F5F7F4F70
:10288000C3010E9422118F83CE0101960E94111272
:10289000FF81F11182C10115110599F0B801CE0136
:1028A00001960E94B312BE016F5F7F4FC3010E9469
:1028B00022118F83CE0101960E9411122F812111C6
:1028C0006EC1A114B10499F0B501CE0101960E9428
:1028D000B312BE016F5F7F4FC3010E9422118F832D
:1028E000CE0101960E9411123F8131115AC181140B
:1028F000910499F0B401CE0101960E94B312BE0179
:102900006F5F7F4FC3010E9422118F83CE0101961A
:102910000E9411124F81411146C16EE871E0CE0153
:1029200001960E94B312BE016F5F7F4FC3010E94E8
:1029300022118F83CE0101960E9411125F815523CF
:1029400039F16CE2C2010E947A138F836AE0C201FE
:102950000E947A13AF81A230A8F4EA2FAA0FFF0BCE
:102960003296EE0FFF1FE40DF51D0190F081E02D72
:10297000309741F0B1E0B68B813024E0920710F43B
:10298000908B878761E172E0C3010E94A01133CF71
:1029900062E871E0CE0101960E94B312BE016F5F42
:1029A0007F4FC3010E9422118F83CE0101960E94A6
:1029B00011123F813323B1F06AE0C2010E947A1301
:1029C000823000F7E82F880FFF0B3296EE0FFF1FC3
:1029D000E40DF51D0190F081E02D309799F241E072
:1029E000468BD0CF68E771E0CE0101960E94B3120A
:1029F000BE016F5F7F4FC3010E9422118F83CE0102
:102A000001960E9411125F81552301F16CE2C2010F
:102A10000E947A138F836AE0C2010E947A139F8119
:102A2000923008F0AFCFE92F990FFF0B3296EE0FDF
:102A3000FF1FE40DF51D0190F081E02D309709F4A2
:102A4000A1CF813009F49ECF158A9CCF6FE671E04B
:102A5000CE0101960E94B312BE016F5F7F4FC3018A
:102A60000E9422118F83CE0101960E941112AF8124
:102A7000AA2329F06AE0C2010E94D20683CF66E64B
:102A800071E0CE0101960E94B312BE016F5F7F4FCD
:102A9000C3010E9422118F83CE0101960E94111260
:102AA000BF81B111E7CF6FE571E0CE0101960E94C1
:102AB000B312BE016F5F7F4FC3010E9422118F834B
:102AC000CE0101960E941112EF81E111D3CF69E589
:102AD00071E0CE0101960E94B312BE016F5F7F4F7D
:102AE000C3010E9422118F83CE0101960E94111210
:102AF000FF81F111BFCF6BE471E0CE0101960E941E
:102B0000B312BE016F5F7F4FC3010E9422118F83FA
:102B1000CE0101960E9411122F81222309F46BCE5F
:102B200061E172E0C3010E94A011C2010E94D317AB
:102B300029CF0E94C6066C197D098E099F092A8536
:102B40003B854C855D85621773078407950708F4FC
:102B50004DCEC3010E94120F61E172E0C3010E94D9
:102B6000A01180E001C081E02D960FB6F894DEBF81
:102B70000FBECDBFDF91CF911F910F91FF90EF90CE
:102B8000DF90CF90BF90AF909F908F907F906F908D
:102B90005F904F903F902F90089582E0E5CF83E0C3
:102BA000E3CF84E0E1CF85E0DFCF2F923F924F92D9
:102BB0005F926F927F928F929F92AF92BF92CF92CD
:102BC000DF92EF92FF920F931F93CF93DF93CDB7D6
:102BD000DEB728970FB6F894DEBF0FBECDBF3C011D
:102BE0001A012B0138872F8361E172E0CE01019633
:102BF0000E94CA11912C812CB12CA12CD12CC12C5A
:102C000078010F8118859E012F5F3F4FB201A1010E
:102C1000C3010E94C913782ECE0101960E941112A1
:102C2000872D28960FB6F894DEBF0FBECDBFDF917B
:102C3000CF911F910F91FF90EF90DF90CF90BF90B9
:102C4000AF909F908F907F906F905F904F903F904C
:102C50002F9008952F923F924F925F926F927F92A2
:102C60008F929F92AF92BF92CF92DF92EF92FF929C
:102C70000F931F93CF93DF93CDB7DEB728970FB68F
:102C8000F894DEBF0FBECDBF3C011A012B0138877F
:102C90002F8361E172E0CE0101960E94CA114501C5
:102CA0005601670178010F8118859E012F5F3F4F04
:102CB000B201A101C3010E94C913182FCE010196D0
:102CC0000E941112812F28960FB6F894DEBF0FBE16
:102CD000CDBFDF91CF911F910F91FF90EF90DF90CB
:102CE000CF90BF90AF909F908F907F906F905F90AC
:102CF0004F903F902F900895AF92BF92CF92DF9266
:102D0000EF92FF920F931F939B01B12CA12CD12C1A
:102D1000C12CF12CE12C00E31BE048EE53E060E015
:102D200070E00E942A161F910F91FF90EF90DF90A4
:102D3000CF90BF90AF900895AF92BF92CF92DF92A5
:102D4000EF92FF920F931F9368EC7AE08FE896E082
:102D50000E94870EB12CA12CD12CC12CF12CE12C7E
:102D600000E31BE020EF3AE040E65AEE60E070E05E
:102D70008FE896E00E942A16813099F46FEB7AE092
:102D80008FE896E00E94870E20EF3AE040E65AEE88
:102D900060E070E08FE896E00E942A1691E08130B2
:102DA00009F090E0892F1F910F91FF90EF90DF9035
:102DB000CF90BF90AF900895AF92BF92CF92DF9225
:102DC000EF92FF920F931F93CF93DF93F82EC1E101
:102DD000D2E0662311F0CAECD1E000919106109187
:102DE000920667EC71E080918F06909190060E94A8
:102DF000CD0D61EA7AE080918F06909190060E9455
:102E000017086F2D80918F06909190060E94D20C2A
:102E1000BE0180918F06909190060E94CD0DB80161
:102E200080918F06909190060E94CD0D80918F0623
:102E300090919006DC01ED91FC910680F781E02DE8
:102E4000099560E070E0CB010E949306B12CA12CA3
:102E5000D12CC12CF12CE12C00E31BE020EF3AE057
:102E600040E157E260E070E08FE896E00E942A16A9
:102E700091E0813009F090E0892FDF91CF911F918F
:102E80000F91FF90EF90DF90CF90BF90AF9008959B
:102E9000AF92BF92CF92DF92EF92FF920F931F9368
:102EA0005701680179018A019B0148EE53E060E017
:102EB00070E00E942A161F910F91FF90EF90DF9013
:102EC000CF90BF90AF9008958F929F92AF92BF9294
:102ED000DF92EF92FF920F931F93CF93DF93EC015A
:102EE0000E94C6064B015C010E94C606681979095A
:102EF0008A099B09603177428105910508F042C03B
:102F000069E27BE0CE010E94870EF12CE12C10E0FB
:102F100000E030E020E040E35BE062E27BE0CE01F5
:102F20000E944817813039F068EE73E080E090E04D
:102F30000E949306D9CF85EFE82E8AE0F82E0FEF96
:102F40001AE02CE03BE044E15BE06CE17BE0CE0189
:102F50000E944817D82EF12CE12C10E000E030E060
:102F600020E040E35BE060EF7AE0CE010E9448178A
:102F700081E0D81651F0D8162CF023E082E090E0E2
:102F80002D152CF490E080E002C081E090E0DF910C
:102F9000CF911F910F91FF90EF90DF90BF90AF9076
:102FA0009F908F900895AF92BF92CF92DF92EF9251
:102FB000FF920F931F93CF93DF93EC010E94C606FD
:102FC0006B017C010E94C6066C197D098E099F0960
:102FD000603177428105910510F080E060C061EDBD
:102FE0007AE0CE010E94870E00E31BE020EF3AE07A
:102FF00048EC50E060E070E0CE010E94D5158130D1
:1030000039F064E670E080E090E00E949306DACF49
:103010006DEE7AE0CE010E94870E60EF7AE0CE017D
:103020000E947C168130C9F665EE7AE0CE010E94DE
:10303000870E60EF7AE0CE010E947C166DED7AE09B
:10304000CE010E94870EB12CA12CD12CC12CF12CC9
:10305000E12C00E31BE020EF3AE040E157E260E0C2
:1030600070E0CE010E942A16813009F0B6CF62EDE1
:103070007AE0CE010E94870E60EF7AE0CE010E94D6
:103080007C16813009F0A9CFCE010E9464179C0103
:103090002150310981E02230310508F09ECFDF91C7
:1030A000CF911F910F91FF90EF90DF90CF90BF9045
:1030B000AF900895EF92FF920F931F93CF93DF93FA
:1030C000EC01009191061091920667EC71E08091FD
:1030D0008F06909190060E94CD0D6BE280918F0635
:1030E000909190060E940208A8016FE3CE010E9411
:1030F000D50D80918F0690919006DC01ED91FC91A9
:103100000680F781E02D099560E070E0CB010E9418
:103110009306F12CE12C10E000E028EA3AE040EBC5
:103120005AE068EB7AE08FE896E00E9448178150F9
:103130008330F0F46CE28FE896E00E94D206809132
:103140008F06909190060E946307C62F30E020E022
:1031500040E35BE060EF7AE08FE896E00E9448177A
:103160008C2FDF91CF911F910F91FF90EF900895D9
:103170008FEFF7CF8DEC91E00E945A18082E000CCB
:10318000990B8130910551F08530910539F083ED2F
:1031900091E00E945A18082E000C990B08957F9216
:1031A0008F929F92AF92BF92CF92DF92EF92FF9257
:1031B0000F931F93CF93DF934C01762E61E471E060
:1031C0000E94870ED0E0C0E0B12CA12CD12CC12CE4
:1031D00050E3E52E5BE0F52E00EF1AE027E331E047
:1031E00048EB5BE060E070E0C4010E942A16082E04
:1031F000000C990B81309105E1F56CE2C4010E944D
:103200007A138C016AE0C4010E947A139C01F801D0
:103210003296EE0FFF1FE80DF91D0190F081E02DB1
:10322000309731F091E02130310509F090E0958B35
:10323000C017D10784F4FE013296EE0FFF1FE80D90
:10324000F91DA191B191109711F055961C922196FC
:103250000C171D07B1F7C130D10529F460EF7AE0F2
:10326000C4010E947C162196C230D1050CF4ACCF6B
:1032700012C0029781F4FE013296EE0FFF1FE80D97
:10328000F91DA191B191109711F055961C922196BC
:10329000C230D105B1F7672D70E06E5F7F4F660FCA
:1032A000771F860E971ED401ED91FC918589DF91E1
:1032B000CF911F910F91FF90EF90DF90CF90BF9033
:1032C000AF909F908F907F9008955F926F927F92C2
:1032D0008F929F92AF92BF92CF92DF92EF92FF9226
:1032E0000F931F93CF93DF93662E712C660C771C80
:1032F000680E791ED30114962D913C91232B91F4E5
:1033000090E080E0DF91CF911F910F91FF90EF90BF
:10331000DF90CF90BF90AF909F908F907F906F90F5
:103320005F900895562EEC010E94CF18882341F338
:103330006EE271E0CE010E94870E912C812CB12C9F
:10334000A12CD12CC12C30E3E32E3BE0F32E00EF77
:103350001AE025E231E048EB5BE060E070E0CE018E
:103360000E942A16082E000C990B8130910509F055
:103370003FC06CE2CE010E947A138C016AE0CE015C
:103380000E947A13F8013296EE0FFF1FEC0FFD1F1B
:103390000190F081E02D309711F0908B8787801697
:1033A0009106A4F4F4013296EE0FFF1FEC0FFD1FFF
:1033B000A191B191109721F050961C921E921F97E7
:1033C000BFEF8B1A9B0A0815190591F7B1E08B1610
:1033D000910429F460EF7AE0CE010E947C16EFEFB1
:1033E0008E1A9E0AF2E08F1691040CF4A8CF17C033
:1033F0000297A9F4F4013296EE0FFF1FEC0FFD1FA8
:10340000A191B191109721F050961C921E921F9796
:103410008FEF881A980AA2E08A16910489F7652D21
:10342000CE010E94CF18D3011496ED91FC913097F4
:1034300009F466CF8785908965CF2F923F925F927E
:103440006F927F928F929F92AF92BF92CF92DF92B4
:10345000EF92FF920F931F93CF93DF93042F10E00F
:10346000000F111F080F191FD80114962D913C91C0
:10347000232BA1F490E080E0DF91CF911F910F9179
:10348000FF90EF90DF90CF90BF90AF909F908F9084
:103490007F906F905F903F902F900895542E9B01E6
:1034A000EC016CE171E00E94220E63E171E0CE015B
:1034B0000E947C168130F1F6888199810E94630711
:1034C0006B011B016CE2CE010E94D206712C612CB3
:1034D0001C141D0494F060EF7AE0CE010E947C166B
:1034E000F80104811581652DCE010E946519D8016E
:1034F00050969C938E931F97BDCF0E94C6064B019A
:103500005C0188819981DC01ED91FC910084F18559
:10351000E02D0995892BC9F40E94C606681979091E
:103520008A099B09D8011496ED91FC91248135817B
:1035300046815781621773078407950730F460E06E
:1035400070E0CB010E949306DCCF88819981DC0179
:10355000ED91FC910284F385E02D0995982EF801F8
:10356000248135815901FFE5AF1AFDEFBF0AD5016E
:10357000ED91FC91CF0101966AE872E00E949A2ECB
:10358000D901AD55BD4F4D915C918417950731F030
:10359000E20FF31F978AF50191838083FFEF6F1A83
:1035A0007F0A621473040CF4A8CF60EF7AE0CE01B6
:1035B0000E947C16D80114960D911C91652DCE01A8
:1035C0000E946519F801908B8787C60155CF8F92AD
:1035D0009F92AF92BF92CF92DF92EF92FF920F93A2
:1035E0001F93CF93DF93EC0160E070E0CB010E946A
:1035F00093060E94C6064B015C018E010D551D4FBE
:10360000CE018F559D4F7C018F859889892BE9F0DC
:103610000E94C606681979098A099B0968397A43A4
:103620008105910590F4F80111821082D7011D9255
:103630001C928C859D854E856F8578896938B2E0AE
:103640007B0718F50E941D1ADFCFF8011182108246
:10365000D7011D921C92EC84FD84F7018081918139
:10366000DC01ED91FC910084F185E02D0995892B19
:1036700079F010E000E030E020E042E350E060E06C
:1036800070E0C7010E94D515E8CF69E872E0DACF93
:103690004E8568E670E08C859D850E94DA0E1D8A55
:1036A000B12CA12CD12CC12CF12CE12C00E31BE07E
:1036B00020EF3AE048EB5BE060E070E08C859D85B0
:1036C0000E942A16DF91CF911F910F91FF90EF90EA
:1036D000DF90CF90BF90AF909F908F900895AF9262
:1036E000BF92CF92DF92EF92FF920F931F93CF93EF
:1036F000DF93EC01EC81FD8180E0309719F0868941
:103700008111168AEE81FF81309749F096899923BD
:1037100031F0168A60E0CE010E94651902C0811165
:10372000F9CF88819981DC01ED91FC910084F185CC
:10373000E02D0995892B91F0B12CA12CD12CC12C15
:10374000F12CE12C10E000E030E020E04FE050E010
:1037500060E070E0CE010E942A16E3CFDF91CF91A6
:103760001F910F91FF90EF90DF90CF90BF90AF909F
:1037700008952F923F924F925F926F927F928F9215
:103780009F92AF92BF92CF92DF92EF92FF920F93F0
:103790001F93CF93DF93CDB7DEB728970FB6F8947A
:1037A000DEBF0FBECDBF98878F832B015C834B8319
:1037B00060E070E0CB010E949306AF81B8851C9653
:1037C0008D919C910E946F1BD12CC12CEF81F885AB
:1037D000EF55FD4FFA83E9836F807884FDE56F1A1A
:1037E000FDEF7F0A8F81988547969E838D83AB81FD
:1037F000BC81CA16DB0608F0A3C0E981FA8180818A
:103800009181D3012D913C91821B930B97FF02C0B4
:1038100086579D4F4C012B813C812C193D09821705
:103820009307E8F5892BE9F154011201F301E080D7
:10383000F180A981BA818D919C918E199F0997FF82
:1038400002C086579D4F009729F10AE812E00E1931
:103850001F09A016B1060CF48501801791070CF41E
:103860008C016D817E816E0D7F1DA801C1010E94BA
:10387000C230C8018E0D9F1D6AE872E00E949A2E28
:10388000F30191838083A01AB10A200E311EA11486
:10389000B10461F6480C591CC80CD91CA8CF4901C9
:1038A000C3CF0E94C606AF81B88551960D911D9178
:1038B0002D913C915497601B710B820B930B653FCC
:1038C00071408105910570F021E0EF81F885268B2C
:1038D0000E94C606AF81B88551966D937D938D93F6
:1038E0009C935497EF81F885848595850E946F1B82
:1038F000AF81B8851F962D913C91509721153105C8
:10390000F9F01C968D919C911D971E964C91F30198
:1039100060817181A981BA81ED91FC916E1B7F0B51
:103920001616170614F066577D4F61507109261759
:10393000370708F4B9010E941D1A892B09F057CFE7
:10394000C60128960FB6F894DEBF0FBECDBFDF913B
:10395000CF911F910F91FF90EF90DF90CF90BF908C
:10396000AF909F908F907F906F905F904F903F901F
:103970002F9008958F929F92AF92BF92EF92FF92F5
:103980000F931F93CF93DF93EC0160E070E0CB01C6
:103990000E9493067E012FE5E21A2DEFF20A8E01B6
:1039A0000D551D4FF70180819181F80120813181F2
:1039B000821B930B97FF3AC08637FDEF9F0729F5CF
:1039C0000E94C60689889A88AB88BC8868197909DC
:1039D0008A099B09653F71408105910540F081E0AE
:1039E0008E8B0E94C606698B7A8B8B8B9C8B8C8509
:1039F0009D850E946F1BF70180819181F8012081D4
:103A00003181821B930B97FF02C086579D4F2F85F4
:103A10003889820F931FDF91CF911F910F91FF90F3
:103A2000EF90BF90AF909F908F900895009779F797
:103A3000C7CFCF92DF92EF92FF920F931F93CF9356
:103A4000DF938C016B017A0160E070E0CB010E9492
:103A50009306D8011C968D919C910E946F1BF801D2
:103A6000C485D5859701468564EA71E0CE010E9440
:103A7000220E62EA71E0CE010E947C16813089F547
:103A800088819981DC01ED91FC910280F381E02D28
:103A9000A701B601099588819981DC01ED91FC911E
:103AA0000680F781E02D099567E971E0CE010E945B
:103AB0007C168130B1F46CE2CE010E94D2066CE239
:103AC000CE010E947A13892B61F46AE0CE01DF9166
:103AD000CF911F910F91FF90EF90DF90CF900C94BA
:103AE0007A1390E080E0DF91CF911F910F91FF90CA
:103AF000EF90DF90CF9008952F923F924F925F9278
:103B00006F927F928F929F92AF92BF92CF92DF92ED
:103B1000EF92FF920F931F93CF93DF9300D000D0CB
:103B2000CDB7DEB79C838B834B015A834983322EFA
:103B3000202E28EE33E0D7010E94C22E2B013C013B
:103B4000432D6BE071E08B819C810E94DA0EB12CD9
:103B5000A12CD12CC12CF12CE12C00E31BE020EF97
:103B60003AE0B301A2018B819C810E942A16813028
:103B700011F080E0D0C02110E5C0AB81BC8112966D
:103B80000D911C91139767EC71E08D919C910E94AF
:103B9000CD0D66EE70E0EB81FC81808191810E9409
:103BA0001708632DAB81BC818D919C910E94D20C32
:103BB0006CE2EB81FC81808191810E94020861EEC0
:103BC00070E0AB81BC818D919C910E941708422DC1
:103BD00050E070E060E02AE0EB81FC81808191811F
:103BE0000E94860CB801AB81BC818D919C910E9492
:103BF000CD0DEB81FC8180819181DC01ED91FC9107
:103C00000680F781E02D099560E070E0CB010E940D
:103C1000930660EF7AE08B819C810E947C162110D4
:103C2000ADC0EB81FC810281138167EC71E0808182
:103C300091810E94CD0D63E870E0AB81BC818D91D4
:103C40009C910E941708632DEB81FC8180819181FA
:103C50000E94D20C60E870E0AB81BC818D919C9198
:103C60000E941708B401EB81FC81808191810E9440
:103C7000CD0D6DE770E0AB81BC818D919C910E9470
:103C80001708E981FA81AF0170E060E02AE0AB81BA
:103C9000BC818D919C910E94860CB801EB81FC81C6
:103CA000808191810E94CD0DAB81BC818D919C91D1
:103CB000DC01ED91FC910680F781E02D099560E033
:103CC00070E0CB010E949306B12CA12CD12CC12C09
:103CD000F12CE12C00E31BE022E730E0B301A2016C
:103CE0008B819C810E942A16813009F042CF6CE2C0
:103CF0008B819C810E94D2066AE08B819C810E940C
:103D00007A13182F60EF7AE08B819C810E947C16D9
:103D100081E011112ECF0F900F900F900F90DF9137
:103D2000CF911F910F91FF90EF90DF90CF90BF90B8
:103D3000AF909F908F907F906F905F904F903F904B
:103D40002F90089561EF70E08B819C810E94870E17
:103D5000B12CA12CD12CC12CF12CE12C00E31BE0C7
:103D600020EF3AE048E853E160E070E08B819C810D
:103D70000E942A16813009F0FCCEFFCE6BEC70E079
:103D80008B819C810E94870EB12CA12CD12CC12C3F
:103D9000F12CE12C00E31BE021EC30E048E853E19A
:103DA00060E070E08B819C810E942A16813009F0CE
:103DB000E0CE6AE08B819C810E94D20660EF7AE0BF
:103DC0008B819C810E947C1696E0EB81FC81939D07
:103DD000E00DF11D112424853585232B09F08CC0BD
:103DE000EB81FC810281138167EC71E0808191811C
:103DF0000E94CD0D6BEA70E0AB81BC818D919C91EE
:103E00000E941708632DEB81FC81808191810E94C3
:103E1000D20C6CE2AB81BC818D919C910E94020816
:103E200060EA70E0EB81FC81808191810E9417083B
:103E3000B801AB81BC818D919C910E94CD0DEB812D
:103E4000FC8180819181DC01ED91FC910680F781FC
:103E5000E02D099560E070E0CB010E94930660EFD1
:103E60007AE08B819C810E947C16EB81FC8102812F
:103E7000138167EC71E0808191810E94CD0D60E932
:103E800070E0AB81BC818D919C910E941708632DDD
:103E9000EB81FC81808191810E94D20C6CE2AB812C
:103EA000BC818D919C910E9402086EE870E0EB81CC
:103EB000FC81808191810E94170898014CE850E0B4
:103EC000B4018B819C810E946A0EAB81BC818D9173
:103ED0009C91DC01ED91FC910680F781E02D099524
:103EE00060E070E0CB010E94930660EF7AE08B8186
:103EF0009C810E947C1695CEAB81BC8112960D915F
:103F00001C9113972D913C9111970084F185E02D20
:103F10008081882309F464CFFD01399EE00DF11DF5
:103F20001124E084F18467EC71E0C9010E94CD0D99
:103F300066EB70E0EB81FC81808191810E94170823
:103F4000632DAB81BC818D919C910E94D20C69ED57
:103F500071E0EB81FC81808191810E94CD0DB701E0
:103F6000AB81BC818D919C910E94CD0D61EE71E081
:103F7000EB81FC81808191810E94CD0DB801AB81E4
:103F8000BC818D919C910E94CD0DEB81FC81808143
:103F90009181DC01ED91FC910680F781E02D09957E
:103FA00060E070E0CB010E949306B12CA12CD12CD3
:103FB000C12CF12CE12C00E31BE020EF3AE048E8B3
:103FC00053E160E070E08B819C810E942A16813071
:103FD00009F0CFCD05CFAF92BF92CF92DF92EF9293
:103FE000FF920F93CF93DF93EC016B015A0179019C
:103FF000E881F9810488F589E02D099560E070E099
:10400000CB010E949306FE01ED55FD4F11821082F7
:1040100032971182108201E02E85A501B6018C85B0
:104020009D850E947C1D8D8B90E0DF91CF910F913B
:10403000FF90EF90DF90CF90BF90AF900895AF9238
:10404000BF92CF92DF92EF92FF920F93CF93DF93C5
:10405000EC016B015A017901E881F9810488F58945
:10406000E02D099560E070E0CB010E949306FE010F
:10407000ED55FD4F1182108232971182108200E0BF
:104080002E85A501B6018C859D850E947C1D8D8B9A
:1040900090E0DF91CF910F91FF90EF90DF90CF9064
:1040A000BF90AF9008951F920F920FB60F921124F8
:1040B0002F933F938F939F93AF93BF9380910C0364
:1040C00090910D03A0910E03B0910F0330910B035B
:1040D00026E0230F2D3758F50296A11DB11D209320
:1040E0000B0380930C0390930D03A0930E03B093E6
:1040F0000F038091100390911103A0911203B091CE
:1041000013030196A11DB11D809310039093110319
:10411000A0931203B0931303BF91AF919F918F911E
:104120003F912F910F900FBE0F901F90189529E887
:10413000230F0396A11DB11DD2CF1F920F920FB670
:104140000F9211242F933F934F935F936F937F931D
:104150008F939F93AF93BF93EF93FF9384E193E08B
:104160000E94B908FF91EF91BF91AF919F918F91FC
:104170007F916F915F914F913F912F910F900FBE63
:104180000F901F9018951F920F920FB60F92112447
:104190002F938F939F93EF93FF93E0912403F091DC
:1041A00025038081E0912A03F0912B0382FD1BC03F
:1041B000908180912D038F5F8F7320912E03821742
:1041C00041F0E0912D03F0E0EC5EFC4F958F809381
:1041D0002D03FF91EF919F918F912F910F900FBE23
:1041E0000F901F9018958081F4CF1F920F920FB6F9
:1041F0000F9211242F933F934F935F936F937F936D
:104200008F939F93AF93BF93EF93FF93E091080336
:10421000F0910903309749F0A685B7858585968D7D
:1042200091FF14C09C918923A1F4FF91EF91BF915C
:10423000AF919F918F917F916F915F914F913F913E
:104240002F910F900FBE0F901F9018959C9189236E
:1042500061F7A389B4899C918589809589238C9382
:10426000868997890197F1F7608D718DA685B7854D
:10427000558538E020E0CB010197F1F7822F90E0DF
:1042800095958795282F4C91452309F0206831504A
:1042900091F7868D81FD20958091070390E001962E
:1042A0008F73992730910603381799F0A09107036F
:1042B000B0E0AA53BD4F2C9380930703828D938D5A
:1042C0000197F1F7A389B4898C919589892B8C93F7
:1042D000ACCF868D8160868FF1CFCF93DF93109224
:1042E00017031092160388EE93E0A0E0B0E08093ED
:1042F000180390931903A0931A03B0931B0323E2AE
:1043000031E0309315032093140325EC30E0309313
:1043100021032093200324EC30E0309323032093E7
:10432000220320EC30E0309325032093240321EC7A
:1043300030E0309327032093260322EC30E03093C3
:1043400029032093280326EC30E030932B0320939D
:104350002A0310922D0310922E0310922F03109215
:1043600030032BE731E03093B2032093B103109276
:10437000B3031092B4031092B5031092B6031092D7
:10438000AC061092AB068093AD069093AE06A09358
:10439000AF06B093B00681E891E09093AA068093AF
:1043A000A9061092C0061092BF061092C206109283
:1043B000C1061092C4061092C3061092C60610924F
:1043C000C5066091C7066E7F6D7F6093C7066695D0
:1043D000617081E0682788E00E94E60561E088E07E
:1043E0000E943206E8E6FBE0E491E093B906E4E5DA
:1043F000FBE0E491F0E0EE0FFF1FEE5BF44F8591E0
:1044000094919093BB068093BA0660E089E00E9485
:1044100032068091C70681FD04C061E089E00E94F8
:10442000E60589E08093B506E9E6FBE0E491E093D8
:10443000B606E5E5FBE0E491F0E0EE0FFF1FE85C77
:10444000F44F859194919093B8068093B706CBE78B
:10445000D1E0D093A406C093A3061092A5061092B3
:10446000A6061092A7061092A80689EA96E09093F5
:10447000900680938F068FE092E09093920680934F
:10448000910661E172E087E996E00E94CA1161E15C
:1044900072E08DE996E00E94CA1110929606109281
:1044A00095068AEE93E01092ED031092EC0348EE2D
:1044B00053E060E070E04093EE035093EF036093AD
:1044C000F0037093F10310928E0610928D061092F5
:1044D0008C0610928B062FE836E03093F70320937A
:1044E000F6031092FA031092F9031092FB03109254
:1044F000FC031092FD031092FE031092FF03109232
:1045000000041092F80390939406809393062BE591
:1045100031E03093EB032093EA031092BA03109238
:10452000B9034093BB035093BC036093BD037093E6
:10453000BE0325E331E03093B8032093B703909393
:10454000C4038093C3038FE891E09093C6038093E4
:10455000C503D093C803C093C7031092C903109238
:10456000CA031092CB031092CC038BEB91E0909393
:10457000CE038093CD0381E08093E2038093E30335
:1045800061E172E084EE93E00E94CA111092D003C0
:104590001092CF031092D2031092D1038FEF9FEFAE
:1045A0009093D4038093D3031092D6031092D50333
:1045B0008BE991E09093D8038093D7038CEA91E044
:1045C0009093DA038093D9031092DB031092DD03FA
:1045D0001092DC0380E395E7A0E0B0E08093DE0377
:1045E0009093DF03A093E003B093E103DF91CF91B9
:1045F0000895CF93DF93CDB7DEB7CB54D1090FB673
:10460000F894DEBF0FBECDBF789484B5826084BDC0
:1046100084B5816084BD85B5826085BD85B58160C6
:1046200085BD80916E00816080936E001092810044
:1046300080918100826080938100809181008160FF
:1046400080938100809180008160809380008091C0
:10465000B10084608093B1008091B000816080934C
:10466000B00080917A00846080937A0080917A0013
:10467000826080937A0080917A008E7F80937A00A6
:1046800080917A00806880937A001092C100E09156
:104690002403F091250382E08083E0912003F091D0
:1046A00021031082E0912203F091230388E08083AC
:1046B00010922C03E0912803F091290386E0808377
:1046C000E0912603F0912703808180618083E0914F
:1046D0002603F0912703808188608083E091260380
:1046E000F0912703808180688083E0912603F09118
:1046F000270380818F7D80836AE070E080E090E016
:104700000E94930660E088E00E94E60560E089E090
:104710000E94E60560E084E00E94E60560EB74E03C
:1047200080E090E00E94930661E084E00E94E6054C
:1047300060ED77E080E090E00E9493066DEE71E01E
:1047400084E193E00E94720D1092C4061092C30699
:104750001092C2061092C1061092C0061092BF06B7
:104760008DEC90E09093C6068093C5069091B506B7
:10477000963108F047C025E530E03093C00620931D
:10478000BF062BEC30E03093C2062093C10620E92F
:1047900030E03093C4062093C3062091680084E083
:1047A000983048F031E09E3008F430E081E001C0FC
:1047B000880F3A95EAF7822B809368002DE630E067
:1047C000983050F02BE630E09E3030F02CE630E0B0
:1047D000963110F030E020E03093BD062093BC0607
:1047E000292F30E0983008F002C181E001C0880F25
:1047F0009A95EAF78093BE068091C5069091C60609
:104800000197F1F78091C3069091C406892B49F175
:10481000E0910803F091090326E0E93AF20709F173
:10482000309739F0A389B4899C9185898095892333
:104830008C938091C7068E7F8093C70610920703E2
:104840001092060389EA96E0909309038093080387
:10485000E091BC06F091BD0680819091BE06892B47
:10486000808361E084E00E94320661E088E00E947B
:10487000320661E088E00E94E60562E089E00E947D
:10488000320660E084E00E94E60568EE73E080E0B6
:1048900090E00E94930661E084E00E94E60560EAF1
:1048A0007FE080E090E00E94930660E777E180E09F
:1048B00090E00E94930665EF71E084E193E00E942E
:1048C000720D67EB71E08FE896E00E94870E60EF53
:1048D0007AE08FE896E00E947C1660E080E00E941B
:1048E000DC168823E1F061E081E00E94DC16882379
:1048F000B1F0B12CA12CD12CC12CF12CE12C00E376
:104900001BE02DEA31E040E355E760E070E08FE81E
:1049100096E00E942A168FE896E00E94D3176AEB71
:1049200071E08FE896E00E94870E61E172E0CE01AF
:1049300040960E94CA11912C812CB12CA12CD12C13
:10494000C12CA0E3EA2EABE0FA2E00EF1AE09E01A4
:10495000205F3F4F48EE53E060E070E08FE896E064
:104960000E94C913DE0111964D0161E172E08130B0
:1049700009F44AC0CD010E94CA11CE0140960E949E
:10498000111267E172E084E193E00E94CD0DC40151
:104990000E941B0D8FE896E00E946417C4010E94DC
:1049A0001112F4E02F2E312C64E272E084E193E0E6
:1049B0000E94CD0D0E94C6066B017C010E94C606B6
:1049C0006C197D098E099F0960367A4E8105910523
:1049D00008F015C20E94BA188B7F019709F40CC623
:1049E0006AEF70E080E090E00E949306E7CF9E308F
:1049F00040F42850310981E001C0880F2A95EAF778
:104A0000F9CE2E503109F7CFCE010A960E94CA1175
:104A10006BE072E0C4010E94CA11AE01465F5F4FB5
:104A2000B401CE0140960E946F0FC4010E94111282
:104A3000CE010A960E94111261E172E0CE010A963F
:104A40000E94CA1162E172E0C4010E94CA11AE0163
:104A5000465F5F4FB401CE0140960E946F0FC401C4
:104A60000E941112CE010A960E94111266EB72E0AA
:104A7000CE010A960E94CA116FE072E0C4010E9442
:104A8000CA11AE01465F5F4FB401CE0140960E944D
:104A90006F0FC4010E941112CE010A960E941112DA
:104AA00066EB72E0CE010A960E94CA1165E172E0DF
:104AB000C4010E94CA11AE01465F5F4FB401CE012E
:104AC00040960E946F0FC4010E941112CE010A96F7
:104AD0000E941112CE0140960E94120F8889998976
:104AE0009A8389838A899B899C838B838C899D89FE
:104AF0009E838D83198A188A1B8A1A8A1D8A1C8AAA
:104B00003CCFCE010A960E94120FBE01665F7F4F16
:104B1000C4010E94C11170E060E0C4010E9424073A
:104B20008B3241F08D3231F0082E000C990BC0977A
:104B30000A97C0F4ED80FE8011E0612F70E06E15E1
:104B40007F0580F4C4010E942407282F082E000C42
:104B5000330B205331092A30310510F08E3211F415
:104B60001F5FEBCFC4010E941112CE010A960E9472
:104B70001112CE01805C9F4F0E941112CE018A5B00
:104B80009F4F0E9411126FE173E0C4010E94CA118D
:104B90008091F803823070F4B6E08B9FC00111243D
:104BA00008962091F6033091F703B401820F931F0A
:104BB0000E94AA11C4010E94111260E173E084E115
:104BC00093E00E94170862E171E084E193E00E94A3
:104BD000CD0D0E949C1687E292E00E94F20D60EFDC
:104BE0007AE08FE896E00E947C166EE172E08FE832
:104BF00096E00E94870EB12CA12CD12CC12CF12C57
:104C0000E12C00E31BE020EF3AE040E65AEE60E0E2
:104C100070E08FE896E00E942A16813009F0EFC01C
:104C200083E192E00E94F20D60EF7AE08FE896E077
:104C30000E947C16E5E06E2E712C26E032E042E107
:104C400051E068E072E08FE896E00E94A10EB12C7E
:104C5000A12CD12CC12CF12CE12C0EED11E023EF75
:104C600031E040E65AEE60E070E08FE896E00E94A6
:104C70002A16182F60EF7AE08FE896E00E947C16E3
:104C8000113009F0B7C06CEB72E084E193E00E9450
:104C9000720D66ED71E08FE896E00E94870EF12CB0
:104CA000E12C10E000E030E020E040E35BE06EEC5F
:104CB00071E08FE896E00E944817813009F070C0DB
:104CC0006AE08FE896E00E947A13D82EF12CE12C4E
:104CD00010E000E030E020E040E35BE060EF7AE0ED
:104CE0008FE896E00E944817F1E0DF1259C066ECA9
:104CF00071E08FE896E00E94870E6CEB71E08FE820
:104D000096E00E947C16813009F480C061E172E077
:104D1000CE010A960E94CA1188E0D4011D928A959C
:104D2000E9F70E851F85D12CF12CE12C7AE0C72EF6
:104D30006D2D70E06017710708F0BDC0CE010A96B6
:104D40000E9424078E3209F098C0BFEFEB1AFB0ACD
:104D5000E4E0EE16F1040CF4A8C080E090E020E05E
:104D600030E03B832C839D838E83CB80DC80ED8081
:104D7000FE80CE010A960E9411121B821C821D82A7
:104D80001E828B819C81AD81BE81C816D906EA0640
:104D9000FB0631F063E672E084E193E00E94720D5D
:104DA0006FEE72E084E193E00E9417081092E20334
:104DB0008091CF039091D0030897039708F0B0C07B
:104DC0008091C3039091C403DC01ED91FC910084B8
:104DD000F185E02D0995892B09F472C08091C303F8
:104DE0009091C403DC01ED91FC910284F385E02DE8
:104DF0000995E6CFE1E06E1A710809F01ECF6DE566
:104E000072E084E193E00E94720DD0C162E28FE80B
:104E100096E00E94D20600918F061091900661E103
:104E200072E0C4010E94CA11C8010E94D40797FD14
:104E300008C08232910529F0682FC4010E940F1129
:104E4000F3CF60EF7AE08FE896E00E947C168981CC
:104E50009A819B878A878B819C819D878C878D8196
:104E60009E819F878E871A8219821C821B821E82D6
:104E70001D82C4010E9411124FCF90ED980F9A30FD
:104E8000B0F4F701EE0FFF1FE80DF91D40815181CD
:104E9000C49E9001C59E300D1124082E000C990B64
:104EA000C097820F931F91838083D39441CFF3E007
:104EB000EF16F104D1F78F819D812B81398151CF7C
:104EC0001092D0031092CF031092D2031092D1030C
:104ED0008FEF9FEF9093D4038093D3031092D60368
:104EE0001092D5038BE991E09093D8038093D70378
:104EF0008CEA91E09093DA038093D9031092DB035C
:104F00001092DD031092DC0380E395E7A0E0B0E0AF
:104F10008093DE039093DF03A093E003B093E1035B
:104F20000091CF031091D0030230110508F03AC16F
:104F30008091E203882341F16091C5037091C6031B
:104F40008091C3039091C403DC01ED91FC914091E9
:104F5000CD035091CE036115710509F01CC1068483
:104F6000F785E02D2BE731E03A832983C090C90310
:104F7000D090CA03E090CB03F090CC03CB82DC82CC
:104F8000ED82FE82B4010AC18091C3039091C403F3
:104F9000DC01ED91FC910688F789E02D09958823C5
:104FA00059F262E772E08091C3039091C4030E94BA
:104FB000CD0D66EB72E08091C3039091C4030E9413
:104FC000CD0D66E071E08091C3039091C4030E940F
:104FD000CD0D66E772E08091C3039091C4030E94F7
:104FE000720D8091E303882309F452C08091C503B8
:104FF0009091C603892BA1F160E872E08091C30310
:105000009091C4030E94CD0D6091C5037091C603B9
:105010008091C3039091C4030E94CD0D8091CD0374
:105020009091CE0380359105A9F067E872E08091F8
:10503000C3039091C4030E94CD0D4091CD035091C4
:10504000CE0370E060E02AE08091C3039091C40336
:105050000E94860C8091C3039091C4030E94170D97
:1050600069E872E08091C3039091C4030E94CD0D62
:1050700069EB72E08091C3039091C4030E94CD0D4F
:1050800064E972E08091C3039091C4030E94720DA1
:105090008091E2038823C1F062EA72E08091C30349
:1050A0009091C4030E94CD0D69EB72E08091C3031F
:1050B0009091C4030E94CD0D6DEA72E08091C3030C
:1050C0009091C4030E94720D81E090E09093D00310
:1050D0008093CF03012B61F48091C3039091C403AB
:1050E0000E94170D82E090E09093D0038093CF034D
:1050F0008091CF039091D00302970CF45CC110E033
:1051000000E042E0C42ED12C5AE0B52E1092D2031A
:105110001092D103D092D003C092CF030E94C60652
:105120002B013C0133EEE32E31E0F32E0A30110562
:1051300009F488C30E94C60664197509860997098F
:105140002091DE033091DF034091E0035091E103B1
:10515000621773078407950708F080C387EB93E015
:105160000E94EB12892B09F46EC087EB93E00E943A
:10517000B20A8C010196D1F28091CF039091D003B5
:105180008230910561F1039709F442C00E94C6067E
:105190002B013C01CBCF0088F189E02D0995892BAB
:1051A00009F0FFCE8DED92E00E94610D60E177E2A3
:1051B00080E090E00E94930668E873E180E090E070
:1051C0000E94930680E090E0892B09F4EDCB0E94C9
:1051D000A508882309F4E8CB0E940000E5CBF7017D
:1051E00080818A3231F0082E000C990B08171907BC
:1051F000A9F5C7010196D70111962C91211106C07E
:10520000E3E0F0E0F093D003E093CF037C01BECF66
:105210009801205331092A30310528F03092D0030B
:105220002092CF03B3CF4091D1035091D203B49ECB
:10523000C001B59E900D1124820F931F9093D2034D
:105240008093D103A3CF68EE73E080E090E00E94EA
:1052500093066CCF0A30110509F028C32CEFE22E1B
:10526000FF24FA9466EC72E084E193E00E94170850
:10527000B70184E193E00E942C0DEF2809F496CF4A
:1052800084EB92E00E94610D61E172E084EE93E0B4
:105290000E94A0118091CF039091D00308970397AB
:1052A00088F087EB93E00E94F6098D30910521F09C
:1052B0008A30910509F084C08091E8039091E90358
:1052C000892B41F38091E8039091E903892B09F43C
:1052D00003C10091E4031091E5036AE370E0C801A3
:1052E0000E94DD3061E172E0009741F0DC01A01B1B
:1052F000B10B8D010F3F100709F068C0CE01409639
:105300000E94CA110091E8031091E90301151105EB
:10531000A1F0E090E403F090E5036AE370E0C701D8
:105320000E94DD30009749F08E199F096C01FFEF54
:10533000CF1ADF0A019609F077C061E172E0CE0171
:105340000A960E94CA1163EB72E0C4010E94CA115E
:105350004C895D8968897989C4010E94DD108111B9
:1053600003C0C4010E946D1143E050E068EB72E09D
:10537000C4010E94DD10811103C0C4010E946D119F
:105380004E855F856A857B85C4010E94DD10811191
:1053900003C0C4010E946D11C4010E941B0DC40111
:1053A0000E941112CE010A960E941112CE0140965F
:1053B0000E94111269CF9EEFE92EFF24FA9452CF7A
:1053C000682F84EE93E00E940F1164CFCE014096C7
:1053D0000E94CA118091E8039091E903009709F4B3
:1053E00091CF8017910708F48C01E091E403F091CC
:1053F000E503E00FF11FF08010826091E4037091EB
:10540000E503CE0140966115710559F00E94A01187
:105410008091E4039091E503080F191FF801F082D1
:1054200071CF0E946D11F4CF3601C016D106CCF4B5
:10543000C016D10630F4F701EC0DFD1DE114F104A6
:1054400021F410920A03EAE0F3E08081082E000CB8
:10545000990B0E94BE2D892B21F03FEFC31AD30A6E
:10546000E3CF0C151D0528F0902F812F8601692EA2
:10547000782E61E172E0CE010A960E94CA11E09096
:10548000E803F090E9030E151F0508F05CCF6E14D9
:105490007F0408F47301E091E403F091E503EE0D5D
:1054A000FF1DD08010826091E4037091E503600FCE
:1054B000711FCE010A966115710559F00E94A01165
:1054C0008091E4039091E503E80EF91ED701DC9288
:1054D0003ACF0E946D11F4CF87EB93E00E94F50A5A
:1054E0008C0197FD0BC060EA72E084E193E00E94BA
:1054F0001708B80184E193E00E942C0D8091DB0332
:10550000882321F088E892E00E94610D87EB93E008
:105510000E94F50A8C0161E172E0C4010E94CA1187
:1055200010161106DCF5B801C4010E94B5108111F6
:1055300035C01B861A861D861C861F861E86C401E2
:105540000E9411128EE792E00E94610DCE010A9630
:105550000E941B0D6DE672E084E193E00E94170843
:105560004E855F8570E060E02AE084E193E00E9470
:10557000860C84E193E00E94170D87EB93E00E9474
:105580003A0B89E592E00E94610D0E949C1668EE3C
:1055900073E080E090E00E949306F9CF8091D503FC
:1055A0009091D6030817190769F087EB93E00E94E2
:1055B000D4078F3F980731F0682FCE0101960E94E3
:1055C0000F11B5CF8D819E811016110624F4081796
:1055D000190709F0AECF29813A813B872A872B81B1
:1055E0003C813D872C879F878E871A8219821C8277
:1055F0001B821E821D82A3CF6CEB72E084E193E0DC
:105600000E94720D0E94BA188B7F019731F46BE3F0
:1056100072E084E193E00E94720D6DE472E0CE01CD
:105620008A5B9F4F0E94CA11BE016A5B7F4FCE0109
:10563000805C9F4F0E94C1116EE472E08FE896E09B
:105640000E94870E00E31BE020EF3AE040E157E2C2
:1056500060E070E08FE896E00E94D5151BAE1AAEB0
:105660001DAE1CAE1FAE1EAE4AE0B40183E090E05A
:105670000E94EA2DB401CE01CA960E94A011BE017B
:10568000605C7F4FCE01C4960E94C11100919106CB
:1056900010919206BE01665C7F4FCE018E960E94ED
:1056A000C111BE016C5C7F4FCE0188960E94C11172
:1056B00067EC71E080918F06909190060E94CD0D6D
:1056C000BE01625D7F4FCE0182960E94C111BE0174
:1056D000685D7F4FCE014C960E94C11166E472E076
:1056E00080918F06909190060E941708BE016E5D12
:1056F0007F4FCE0146960E94C111BE01645E7F4F6E
:10570000CE0140960E94C111BE01605F7F4F809123
:105710008F06909190060E940908BE016A5E7F4F35
:10572000CE010A960E94C1116AE572E080918F064F
:10573000909190060E94CD0DBE01665F7F4FC4011F
:105740000E94C111B40180918F06909190060E9431
:105750000908B80180918F06909190060E94CD0DA6
:10576000C4010E941112CE010A960E941112CE01AC
:1057700040960E941112CE0146960E941112CE014F
:105780004C960E941112CE0182960E941112CE01F7
:1057900088960E941112CE018E960E94111280915D
:1057A0008F0690919006DC01ED91FC910680F781C7
:1057B000E02D099560E070E0CB010E949306CE01D8
:1057C000C4960E941112CE01CA960E94111200E3E3
:1057D0001BE020EF3AE040E157E260E070E08FE844
:1057E00096E00E94D515813009F0C3C960E472E0EB
:1057F0008FE896E00E94870E29E332E040E157E20D
:1058000060E070E08FE896E00E94D515882309F4E7
:10581000B0C900918F061091900661E172E0CE014F
:105820000A960E94CA11C8010E94D40797FD69C94F
:105830008A30910509F465C9682FCE010A960E9445
:105840000F11F1CF8091D1039091D203883C910543
:105850002CF48536910511F010E000E08091CF0323
:105860009091D003049709F0F5CCE090D103F0902B
:10587000D203F8ECEF16F104ACF425E6E216F104DD
:1058800009F044CC0A30110589F466EC72E084E139
:1058900093E00E94170865E670E084E193E00E94BF
:1058A0002C0DEECC0A30110509F4DCCC8DEFE82E7E
:1058B000FF24FA94D7CC85E391E09093B8038093CA
:1058C000B70384EE93E00E9411128DE996E00E94E6
:1058D000111287E996E00E94111281E891E09093FD
:1058E000AA068093A9068091080390910903895A1A
:1058F000964071F4E091BC06F091BD0690818091D4
:10590000BE068095892380831092090310920803B4
:105910000895B0E0A0E0EFE8FCE20C94552E5C01A5
:105920006B017A016115710519F0FB019183808388
:10593000E114F10451F0C7010297839730F040E081
:1059400030E020E090E072C05E01E5012196F501B3
:105950001081812F90E00E94BE2D892BA9F71D3266
:1059600001F52196F501118101E0E114F10409F43A
:10597000DAC0F0E1EF16F10409F082C0103359F4F7
:1059800088818F7D883509F076C019812296026062
:10599000F0E1EF2EF12C812C912CA12C88E0B82E77
:1059A0008CC01B3221F4E5012296F501118100E043
:1059B000DCCFEAE0EE16F10409F4BBC0F0E1EF162B
:1059C000F10409F06DC0E7CF78E0E72EF12C812CCF
:1059D000912CA12C60E1B62E70C03FE9310F3A3115
:1059E00028F439EA332E80C021E09AC0302F31707C
:1059F000C114D10431F0222309F12197F601D1839A
:105A0000C08327FF21C060E070E080E090E83111A2
:105A100004C06FEF7FEF8FEF9FE722E230E030931B
:105A2000C9062093C806462F372F282F642F732FBF
:105A3000822FCDB7DEB7E1E10C94712E01FF04C0D7
:105A40002297F601D183C083332341F0909580954E
:105A5000709561957F4F8F4F9F4FE5CF97FFE3CFB5
:105A600082E290E09093C9068093C8066FEF7FEFC3
:105A70008FEF9FE7D8CF10E3E114F10409F4A4CF2E
:105A800028E0E216F10409F4A2CF0CF092CF812CA9
:105A9000912CA12CE0E4BE2E82E0E816F10469F01E
:105AA00060E070E080E090E897010F2C000C440B60
:105AB000550B0E94272E49015A0120E060E070E05A
:105AC000CB0127010F2C000C66087708FE0150ED72
:105AD000352E310E39E0331540F43FEB310F3A31BA
